{
	"Operators_conversions_and_timeUnits.sol": {
		"TimeAndMath": {
			"abi": [
				{
					"inputs": [
						{
							"internalType": "uint256",
							"name": "a",
							"type": "uint256"
						},
						{
							"internalType": "uint256",
							"name": "b",
							"type": "uint256"
						}
					],
					"name": "calculateSum",
					"outputs": [],
					"stateMutability": "nonpayable",
					"type": "function"
				},
				{
					"inputs": [
						{
							"internalType": "uint256",
							"name": "value",
							"type": "uint256"
						}
					],
					"name": "scaleValue",
					"outputs": [],
					"stateMutability": "nonpayable",
					"type": "function"
				},
				{
					"inputs": [],
					"name": "scaledValue",
					"outputs": [
						{
							"internalType": "uint256",
							"name": "",
							"type": "uint256"
						}
					],
					"stateMutability": "view",
					"type": "function"
				},
				{
					"inputs": [
						{
							"internalType": "uint256",
							"name": "daysAfter",
							"type": "uint256"
						}
					],
					"name": "setTimeStamp",
					"outputs": [],
					"stateMutability": "nonpayable",
					"type": "function"
				},
				{
					"inputs": [],
					"name": "sum",
					"outputs": [
						{
							"internalType": "uint256",
							"name": "",
							"type": "uint256"
						}
					],
					"stateMutability": "view",
					"type": "function"
				},
				{
					"inputs": [],
					"name": "timestamp",
					"outputs": [
						{
							"internalType": "uint256",
							"name": "",
							"type": "uint256"
						}
					],
					"stateMutability": "view",
					"type": "function"
				}
			],
			"devdoc": {
				"kind": "dev",
				"methods": {},
				"version": 1
			},
			"evm": {
				"assembly": "    /* \"Operators_conversions_and_timeUnits.sol\":61:519  contract TimeAndMath{... */\n  mstore(0x40, 0x80)\n  callvalue\n  dup1\n  iszero\n  tag_1\n  jumpi\n  revert(0x00, 0x00)\ntag_1:\n  pop\n  dataSize(sub_0)\n  dup1\n  dataOffset(sub_0)\n  0x00\n  codecopy\n  0x00\n  return\nstop\n\nsub_0: assembly {\n        /* \"Operators_conversions_and_timeUnits.sol\":61:519  contract TimeAndMath{... */\n      mstore(0x40, 0x80)\n      callvalue\n      dup1\n      iszero\n      tag_1\n      jumpi\n      revert(0x00, 0x00)\n    tag_1:\n      pop\n      jumpi(tag_2, lt(calldatasize, 0x04))\n      shr(0xe0, calldataload(0x00))\n      dup1\n      0x13e43bc6\n      eq\n      tag_3\n      jumpi\n      dup1\n      0x853255cc\n      eq\n      tag_4\n      jumpi\n      dup1\n      0xa1ad01ac\n      eq\n      tag_5\n      jumpi\n      dup1\n      0xb6071898\n      eq\n      tag_6\n      jumpi\n      dup1\n      0xb80777ea\n      eq\n      tag_7\n      jumpi\n      dup1\n      0xea4097bd\n      eq\n      tag_8\n      jumpi\n    tag_2:\n      revert(0x00, 0x00)\n        /* \"Operators_conversions_and_timeUnits.sol\":390:516  function setTimeStamp(uint daysAfter) public{... */\n    tag_3:\n      tag_9\n      0x04\n      dup1\n      calldatasize\n      sub\n      dup2\n      add\n      swap1\n      tag_10\n      swap2\n      swap1\n      tag_11\n      jump\t// in\n    tag_10:\n      tag_12\n      jump\t// in\n    tag_9:\n      stop\n        /* \"Operators_conversions_and_timeUnits.sol\":88:103  uint public sum */\n    tag_4:\n      tag_13\n      tag_14\n      jump\t// in\n    tag_13:\n      mload(0x40)\n      tag_15\n      swap2\n      swap1\n      tag_16\n      jump\t// in\n    tag_15:\n      mload(0x40)\n      dup1\n      swap2\n      sub\n      swap1\n      return\n        /* \"Operators_conversions_and_timeUnits.sol\":110:133  uint public scaledValue */\n    tag_5:\n      tag_17\n      tag_18\n      jump\t// in\n    tag_17:\n      mload(0x40)\n      tag_19\n      swap2\n      swap1\n      tag_16\n      jump\t// in\n    tag_19:\n      mload(0x40)\n      dup1\n      swap2\n      sub\n      swap1\n      return\n        /* \"Operators_conversions_and_timeUnits.sol\":276:382  function scaleValue(uint value) public {... */\n    tag_6:\n      tag_20\n      0x04\n      dup1\n      calldatasize\n      sub\n      dup2\n      add\n      swap1\n      tag_21\n      swap2\n      swap1\n      tag_11\n      jump\t// in\n    tag_21:\n      tag_22\n      jump\t// in\n    tag_20:\n      stop\n        /* \"Operators_conversions_and_timeUnits.sol\":140:161  uint public timestamp */\n    tag_7:\n      tag_23\n      tag_24\n      jump\t// in\n    tag_23:\n      mload(0x40)\n      tag_25\n      swap2\n      swap1\n      tag_16\n      jump\t// in\n    tag_25:\n      mload(0x40)\n      dup1\n      swap2\n      sub\n      swap1\n      return\n        /* \"Operators_conversions_and_timeUnits.sol\":170:268  function calculateSum(uint a, uint b) public {... */\n    tag_8:\n      tag_26\n      0x04\n      dup1\n      calldatasize\n      sub\n      dup2\n      add\n      swap1\n      tag_27\n      swap2\n      swap1\n      tag_28\n      jump\t// in\n    tag_27:\n      tag_29\n      jump\t// in\n    tag_26:\n      stop\n        /* \"Operators_conversions_and_timeUnits.sol\":390:516  function setTimeStamp(uint daysAfter) public{... */\n    tag_12:\n        /* \"Operators_conversions_and_timeUnits.sol\":488:494  1 days */\n      0x015180\n        /* \"Operators_conversions_and_timeUnits.sol\":476:485  daysAfter */\n      dup2\n        /* \"Operators_conversions_and_timeUnits.sol\":476:494  daysAfter * 1 days */\n      tag_31\n      swap2\n      swap1\n      tag_32\n      jump\t// in\n    tag_31:\n        /* \"Operators_conversions_and_timeUnits.sol\":458:473  block.timestamp */\n      timestamp\n        /* \"Operators_conversions_and_timeUnits.sol\":458:494  block.timestamp + daysAfter * 1 days */\n      tag_33\n      swap2\n      swap1\n      tag_34\n      jump\t// in\n    tag_33:\n        /* \"Operators_conversions_and_timeUnits.sol\":445:454  timestamp */\n      0x02\n        /* \"Operators_conversions_and_timeUnits.sol\":445:494  timestamp =  block.timestamp + daysAfter * 1 days */\n      dup2\n      swap1\n      sstore\n      pop\n        /* \"Operators_conversions_and_timeUnits.sol\":390:516  function setTimeStamp(uint daysAfter) public{... */\n      pop\n      jump\t// out\n        /* \"Operators_conversions_and_timeUnits.sol\":88:103  uint public sum */\n    tag_14:\n      sload(0x00)\n      dup2\n      jump\t// out\n        /* \"Operators_conversions_and_timeUnits.sol\":110:133  uint public scaledValue */\n    tag_18:\n      sload(0x01)\n      dup2\n      jump\t// out\n        /* \"Operators_conversions_and_timeUnits.sol\":276:382  function scaleValue(uint value) public {... */\n    tag_22:\n        /* \"Operators_conversions_and_timeUnits.sol\":348:352  1e18 */\n      0x0de0b6b3a7640000\n        /* \"Operators_conversions_and_timeUnits.sol\":340:345  value */\n      dup2\n        /* \"Operators_conversions_and_timeUnits.sol\":340:352  value * 1e18 */\n      tag_36\n      swap2\n      swap1\n      tag_32\n      jump\t// in\n    tag_36:\n        /* \"Operators_conversions_and_timeUnits.sol\":326:337  scaledValue */\n      0x01\n        /* \"Operators_conversions_and_timeUnits.sol\":326:352  scaledValue = value * 1e18 */\n      dup2\n      swap1\n      sstore\n      pop\n        /* \"Operators_conversions_and_timeUnits.sol\":276:382  function scaleValue(uint value) public {... */\n      pop\n      jump\t// out\n        /* \"Operators_conversions_and_timeUnits.sol\":140:161  uint public timestamp */\n    tag_24:\n      sload(0x02)\n      dup2\n      jump\t// out\n        /* \"Operators_conversions_and_timeUnits.sol\":170:268  function calculateSum(uint a, uint b) public {... */\n    tag_29:\n        /* \"Operators_conversions_and_timeUnits.sol\":234:235  b */\n      dup1\n        /* \"Operators_conversions_and_timeUnits.sol\":232:233  a */\n      dup3\n        /* \"Operators_conversions_and_timeUnits.sol\":232:235  a+b */\n      tag_38\n      swap2\n      swap1\n      tag_34\n      jump\t// in\n    tag_38:\n        /* \"Operators_conversions_and_timeUnits.sol\":226:229  sum */\n      0x00\n        /* \"Operators_conversions_and_timeUnits.sol\":226:235  sum = a+b */\n      dup2\n      swap1\n      sstore\n      pop\n        /* \"Operators_conversions_and_timeUnits.sol\":170:268  function calculateSum(uint a, uint b) public {... */\n      pop\n      pop\n      jump\t// out\n        /* \"#utility.yul\":88:205   */\n    tag_40:\n        /* \"#utility.yul\":197:198   */\n      0x00\n        /* \"#utility.yul\":194:195   */\n      0x00\n        /* \"#utility.yul\":187:199   */\n      revert\n        /* \"#utility.yul\":334:411   */\n    tag_42:\n        /* \"#utility.yul\":371:378   */\n      0x00\n        /* \"#utility.yul\":400:405   */\n      dup2\n        /* \"#utility.yul\":389:405   */\n      swap1\n      pop\n        /* \"#utility.yul\":334:411   */\n      swap2\n      swap1\n      pop\n      jump\t// out\n        /* \"#utility.yul\":417:539   */\n    tag_43:\n        /* \"#utility.yul\":490:514   */\n      tag_53\n        /* \"#utility.yul\":508:513   */\n      dup2\n        /* \"#utility.yul\":490:514   */\n      tag_42\n      jump\t// in\n    tag_53:\n        /* \"#utility.yul\":483:488   */\n      dup2\n        /* \"#utility.yul\":480:515   */\n      eq\n        /* \"#utility.yul\":470:533   */\n      tag_54\n      jumpi\n        /* \"#utility.yul\":529:530   */\n      0x00\n        /* \"#utility.yul\":526:527   */\n      0x00\n        /* \"#utility.yul\":519:531   */\n      revert\n        /* \"#utility.yul\":470:533   */\n    tag_54:\n        /* \"#utility.yul\":417:539   */\n      pop\n      jump\t// out\n        /* \"#utility.yul\":545:684   */\n    tag_44:\n        /* \"#utility.yul\":591:596   */\n      0x00\n        /* \"#utility.yul\":629:635   */\n      dup2\n        /* \"#utility.yul\":616:636   */\n      calldataload\n        /* \"#utility.yul\":607:636   */\n      swap1\n      pop\n        /* \"#utility.yul\":645:678   */\n      tag_56\n        /* \"#utility.yul\":672:677   */\n      dup2\n        /* \"#utility.yul\":645:678   */\n      tag_43\n      jump\t// in\n    tag_56:\n        /* \"#utility.yul\":545:684   */\n      swap3\n      swap2\n      pop\n      pop\n      jump\t// out\n        /* \"#utility.yul\":690:1019   */\n    tag_11:\n        /* \"#utility.yul\":749:755   */\n      0x00\n        /* \"#utility.yul\":798:800   */\n      0x20\n        /* \"#utility.yul\":786:795   */\n      dup3\n        /* \"#utility.yul\":777:784   */\n      dup5\n        /* \"#utility.yul\":773:796   */\n      sub\n        /* \"#utility.yul\":769:801   */\n      slt\n        /* \"#utility.yul\":766:885   */\n      iszero\n      tag_58\n      jumpi\n        /* \"#utility.yul\":804:883   */\n      tag_59\n      tag_40\n      jump\t// in\n    tag_59:\n        /* \"#utility.yul\":766:885   */\n    tag_58:\n        /* \"#utility.yul\":924:925   */\n      0x00\n        /* \"#utility.yul\":949:1002   */\n      tag_60\n        /* \"#utility.yul\":994:1001   */\n      dup5\n        /* \"#utility.yul\":985:991   */\n      dup3\n        /* \"#utility.yul\":974:983   */\n      dup6\n        /* \"#utility.yul\":970:992   */\n      add\n        /* \"#utility.yul\":949:1002   */\n      tag_44\n      jump\t// in\n    tag_60:\n        /* \"#utility.yul\":939:1002   */\n      swap2\n      pop\n        /* \"#utility.yul\":895:1012   */\n      pop\n        /* \"#utility.yul\":690:1019   */\n      swap3\n      swap2\n      pop\n      pop\n      jump\t// out\n        /* \"#utility.yul\":1025:1143   */\n    tag_45:\n        /* \"#utility.yul\":1112:1136   */\n      tag_62\n        /* \"#utility.yul\":1130:1135   */\n      dup2\n        /* \"#utility.yul\":1112:1136   */\n      tag_42\n      jump\t// in\n    tag_62:\n        /* \"#utility.yul\":1107:1110   */\n      dup3\n        /* \"#utility.yul\":1100:1137   */\n      mstore\n        /* \"#utility.yul\":1025:1143   */\n      pop\n      pop\n      jump\t// out\n        /* \"#utility.yul\":1149:1371   */\n    tag_16:\n        /* \"#utility.yul\":1242:1246   */\n      0x00\n        /* \"#utility.yul\":1280:1282   */\n      0x20\n        /* \"#utility.yul\":1269:1278   */\n      dup3\n        /* \"#utility.yul\":1265:1283   */\n      add\n        /* \"#utility.yul\":1257:1283   */\n      swap1\n      pop\n        /* \"#utility.yul\":1293:1364   */\n      tag_64\n        /* \"#utility.yul\":1361:1362   */\n      0x00\n        /* \"#utility.yul\":1350:1359   */\n      dup4\n        /* \"#utility.yul\":1346:1363   */\n      add\n        /* \"#utility.yul\":1337:1343   */\n      dup5\n        /* \"#utility.yul\":1293:1364   */\n      tag_45\n      jump\t// in\n    tag_64:\n        /* \"#utility.yul\":1149:1371   */\n      swap3\n      swap2\n      pop\n      pop\n      jump\t// out\n        /* \"#utility.yul\":1377:1851   */\n    tag_28:\n        /* \"#utility.yul\":1445:1451   */\n      0x00\n        /* \"#utility.yul\":1453:1459   */\n      0x00\n        /* \"#utility.yul\":1502:1504   */\n      0x40\n        /* \"#utility.yul\":1490:1499   */\n      dup4\n        /* \"#utility.yul\":1481:1488   */\n      dup6\n        /* \"#utility.yul\":1477:1500   */\n      sub\n        /* \"#utility.yul\":1473:1505   */\n      slt\n        /* \"#utility.yul\":1470:1589   */\n      iszero\n      tag_66\n      jumpi\n        /* \"#utility.yul\":1508:1587   */\n      tag_67\n      tag_40\n      jump\t// in\n    tag_67:\n        /* \"#utility.yul\":1470:1589   */\n    tag_66:\n        /* \"#utility.yul\":1628:1629   */\n      0x00\n        /* \"#utility.yul\":1653:1706   */\n      tag_68\n        /* \"#utility.yul\":1698:1705   */\n      dup6\n        /* \"#utility.yul\":1689:1695   */\n      dup3\n        /* \"#utility.yul\":1678:1687   */\n      dup7\n        /* \"#utility.yul\":1674:1696   */\n      add\n        /* \"#utility.yul\":1653:1706   */\n      tag_44\n      jump\t// in\n    tag_68:\n        /* \"#utility.yul\":1643:1706   */\n      swap3\n      pop\n        /* \"#utility.yul\":1599:1716   */\n      pop\n        /* \"#utility.yul\":1755:1757   */\n      0x20\n        /* \"#utility.yul\":1781:1834   */\n      tag_69\n        /* \"#utility.yul\":1826:1833   */\n      dup6\n        /* \"#utility.yul\":1817:1823   */\n      dup3\n        /* \"#utility.yul\":1806:1815   */\n      dup7\n        /* \"#utility.yul\":1802:1824   */\n      add\n        /* \"#utility.yul\":1781:1834   */\n      tag_44\n      jump\t// in\n    tag_69:\n        /* \"#utility.yul\":1771:1834   */\n      swap2\n      pop\n        /* \"#utility.yul\":1726:1844   */\n      pop\n        /* \"#utility.yul\":1377:1851   */\n      swap3\n      pop\n      swap3\n      swap1\n      pop\n      jump\t// out\n        /* \"#utility.yul\":1857:2037   */\n    tag_46:\n        /* \"#utility.yul\":1905:1982   */\n      0x4e487b7100000000000000000000000000000000000000000000000000000000\n        /* \"#utility.yul\":1902:1903   */\n      0x00\n        /* \"#utility.yul\":1895:1983   */\n      mstore\n        /* \"#utility.yul\":2002:2006   */\n      0x11\n        /* \"#utility.yul\":1999:2000   */\n      0x04\n        /* \"#utility.yul\":1992:2007   */\n      mstore\n        /* \"#utility.yul\":2026:2030   */\n      0x24\n        /* \"#utility.yul\":2023:2024   */\n      0x00\n        /* \"#utility.yul\":2016:2031   */\n      revert\n        /* \"#utility.yul\":2043:2453   */\n    tag_32:\n        /* \"#utility.yul\":2083:2090   */\n      0x00\n        /* \"#utility.yul\":2106:2126   */\n      tag_72\n        /* \"#utility.yul\":2124:2125   */\n      dup3\n        /* \"#utility.yul\":2106:2126   */\n      tag_42\n      jump\t// in\n    tag_72:\n        /* \"#utility.yul\":2101:2126   */\n      swap2\n      pop\n        /* \"#utility.yul\":2140:2160   */\n      tag_73\n        /* \"#utility.yul\":2158:2159   */\n      dup4\n        /* \"#utility.yul\":2140:2160   */\n      tag_42\n      jump\t// in\n    tag_73:\n        /* \"#utility.yul\":2135:2160   */\n      swap3\n      pop\n        /* \"#utility.yul\":2195:2196   */\n      dup3\n        /* \"#utility.yul\":2192:2193   */\n      dup3\n        /* \"#utility.yul\":2188:2197   */\n      mul\n        /* \"#utility.yul\":2217:2247   */\n      tag_74\n        /* \"#utility.yul\":2235:2246   */\n      dup2\n        /* \"#utility.yul\":2217:2247   */\n      tag_42\n      jump\t// in\n    tag_74:\n        /* \"#utility.yul\":2206:2247   */\n      swap2\n      pop\n        /* \"#utility.yul\":2396:2397   */\n      dup3\n        /* \"#utility.yul\":2387:2394   */\n      dup3\n        /* \"#utility.yul\":2383:2398   */\n      div\n        /* \"#utility.yul\":2380:2381   */\n      dup5\n        /* \"#utility.yul\":2377:2399   */\n      eq\n        /* \"#utility.yul\":2357:2358   */\n      dup4\n        /* \"#utility.yul\":2350:2359   */\n      iszero\n        /* \"#utility.yul\":2330:2413   */\n      or\n        /* \"#utility.yul\":2307:2446   */\n      tag_75\n      jumpi\n        /* \"#utility.yul\":2426:2444   */\n      tag_76\n      tag_46\n      jump\t// in\n    tag_76:\n        /* \"#utility.yul\":2307:2446   */\n    tag_75:\n        /* \"#utility.yul\":2091:2453   */\n      pop\n        /* \"#utility.yul\":2043:2453   */\n      swap3\n      swap2\n      pop\n      pop\n      jump\t// out\n        /* \"#utility.yul\":2459:2650   */\n    tag_34:\n        /* \"#utility.yul\":2499:2502   */\n      0x00\n        /* \"#utility.yul\":2518:2538   */\n      tag_78\n        /* \"#utility.yul\":2536:2537   */\n      dup3\n        /* \"#utility.yul\":2518:2538   */\n      tag_42\n      jump\t// in\n    tag_78:\n        /* \"#utility.yul\":2513:2538   */\n      swap2\n      pop\n        /* \"#utility.yul\":2552:2572   */\n      tag_79\n        /* \"#utility.yul\":2570:2571   */\n      dup4\n        /* \"#utility.yul\":2552:2572   */\n      tag_42\n      jump\t// in\n    tag_79:\n        /* \"#utility.yul\":2547:2572   */\n      swap3\n      pop\n        /* \"#utility.yul\":2595:2596   */\n      dup3\n        /* \"#utility.yul\":2592:2593   */\n      dup3\n        /* \"#utility.yul\":2588:2597   */\n      add\n        /* \"#utility.yul\":2581:2597   */\n      swap1\n      pop\n        /* \"#utility.yul\":2616:2619   */\n      dup1\n        /* \"#utility.yul\":2613:2614   */\n      dup3\n        /* \"#utility.yul\":2610:2620   */\n      gt\n        /* \"#utility.yul\":2607:2643   */\n      iszero\n      tag_80\n      jumpi\n        /* \"#utility.yul\":2623:2641   */\n      tag_81\n      tag_46\n      jump\t// in\n    tag_81:\n        /* \"#utility.yul\":2607:2643   */\n    tag_80:\n        /* \"#utility.yul\":2459:2650   */\n      swap3\n      swap2\n      pop\n      pop\n      jump\t// out\n\n    auxdata: 0xa26469706673582212208430cdf2868a539d38fa78cd2dcb82d9d7e92e3da6df77cef1d4c39bb814670f64736f6c634300081e0033\n}\n",
				"bytecode": {
					"linkReferences": {},
					"object": "6080604052348015600e575f5ffd5b506103178061001c5f395ff3fe608060405234801561000f575f5ffd5b5060043610610060575f3560e01c806313e43bc614610064578063853255cc14610080578063a1ad01ac1461009e578063b6071898146100bc578063b80777ea146100d8578063ea4097bd146100f6575b5f5ffd5b61007e600480360381019061007991906101af565b610112565b005b610088610135565b60405161009591906101e9565b60405180910390f35b6100a661013a565b6040516100b391906101e9565b60405180910390f35b6100d660048036038101906100d191906101af565b610140565b005b6100e061015d565b6040516100ed91906101e9565b60405180910390f35b610110600480360381019061010b9190610202565b610163565b005b6201518081610121919061026d565b4261012c91906102ae565b60028190555050565b5f5481565b60015481565b670de0b6b3a764000081610154919061026d565b60018190555050565b60025481565b808261016f91906102ae565b5f819055505050565b5f5ffd5b5f819050919050565b61018e8161017c565b8114610198575f5ffd5b50565b5f813590506101a981610185565b92915050565b5f602082840312156101c4576101c3610178565b5b5f6101d18482850161019b565b91505092915050565b6101e38161017c565b82525050565b5f6020820190506101fc5f8301846101da565b92915050565b5f5f6040838503121561021857610217610178565b5b5f6102258582860161019b565b92505060206102368582860161019b565b9150509250929050565b7f4e487b71000000000000000000000000000000000000000000000000000000005f52601160045260245ffd5b5f6102778261017c565b91506102828361017c565b92508282026102908161017c565b915082820484148315176102a7576102a6610240565b5b5092915050565b5f6102b88261017c565b91506102c38361017c565b92508282019050808211156102db576102da610240565b5b9291505056fea26469706673582212208430cdf2868a539d38fa78cd2dcb82d9d7e92e3da6df77cef1d4c39bb814670f64736f6c634300081e0033",
					"opcodes": "PUSH1 0x80 PUSH1 0x40 MSTORE CALLVALUE DUP1 ISZERO PUSH1 0xE JUMPI PUSH0 PUSH0 REVERT JUMPDEST POP PUSH2 0x317 DUP1 PUSH2 0x1C PUSH0 CODECOPY PUSH0 RETURN INVALID PUSH1 0x80 PUSH1 0x40 MSTORE CALLVALUE DUP1 ISZERO PUSH2 0xF JUMPI PUSH0 PUSH0 REVERT JUMPDEST POP PUSH1 0x4 CALLDATASIZE LT PUSH2 0x60 JUMPI PUSH0 CALLDATALOAD PUSH1 0xE0 SHR DUP1 PUSH4 0x13E43BC6 EQ PUSH2 0x64 JUMPI DUP1 PUSH4 0x853255CC EQ PUSH2 0x80 JUMPI DUP1 PUSH4 0xA1AD01AC EQ PUSH2 0x9E JUMPI DUP1 PUSH4 0xB6071898 EQ PUSH2 0xBC JUMPI DUP1 PUSH4 0xB80777EA EQ PUSH2 0xD8 JUMPI DUP1 PUSH4 0xEA4097BD EQ PUSH2 0xF6 JUMPI JUMPDEST PUSH0 PUSH0 REVERT JUMPDEST PUSH2 0x7E PUSH1 0x4 DUP1 CALLDATASIZE SUB DUP2 ADD SWAP1 PUSH2 0x79 SWAP2 SWAP1 PUSH2 0x1AF JUMP JUMPDEST PUSH2 0x112 JUMP JUMPDEST STOP JUMPDEST PUSH2 0x88 PUSH2 0x135 JUMP JUMPDEST PUSH1 0x40 MLOAD PUSH2 0x95 SWAP2 SWAP1 PUSH2 0x1E9 JUMP JUMPDEST PUSH1 0x40 MLOAD DUP1 SWAP2 SUB SWAP1 RETURN JUMPDEST PUSH2 0xA6 PUSH2 0x13A JUMP JUMPDEST PUSH1 0x40 MLOAD PUSH2 0xB3 SWAP2 SWAP1 PUSH2 0x1E9 JUMP JUMPDEST PUSH1 0x40 MLOAD DUP1 SWAP2 SUB SWAP1 RETURN JUMPDEST PUSH2 0xD6 PUSH1 0x4 DUP1 CALLDATASIZE SUB DUP2 ADD SWAP1 PUSH2 0xD1 SWAP2 SWAP1 PUSH2 0x1AF JUMP JUMPDEST PUSH2 0x140 JUMP JUMPDEST STOP JUMPDEST PUSH2 0xE0 PUSH2 0x15D JUMP JUMPDEST PUSH1 0x40 MLOAD PUSH2 0xED SWAP2 SWAP1 PUSH2 0x1E9 JUMP JUMPDEST PUSH1 0x40 MLOAD DUP1 SWAP2 SUB SWAP1 RETURN JUMPDEST PUSH2 0x110 PUSH1 0x4 DUP1 CALLDATASIZE SUB DUP2 ADD SWAP1 PUSH2 0x10B SWAP2 SWAP1 PUSH2 0x202 JUMP JUMPDEST PUSH2 0x163 JUMP JUMPDEST STOP JUMPDEST PUSH3 0x15180 DUP2 PUSH2 0x121 SWAP2 SWAP1 PUSH2 0x26D JUMP JUMPDEST TIMESTAMP PUSH2 0x12C SWAP2 SWAP1 PUSH2 0x2AE JUMP JUMPDEST PUSH1 0x2 DUP2 SWAP1 SSTORE POP POP JUMP JUMPDEST PUSH0 SLOAD DUP2 JUMP JUMPDEST PUSH1 0x1 SLOAD DUP2 JUMP JUMPDEST PUSH8 0xDE0B6B3A7640000 DUP2 PUSH2 0x154 SWAP2 SWAP1 PUSH2 0x26D JUMP JUMPDEST PUSH1 0x1 DUP2 SWAP1 SSTORE POP POP JUMP JUMPDEST PUSH1 0x2 SLOAD DUP2 JUMP JUMPDEST DUP1 DUP3 PUSH2 0x16F SWAP2 SWAP1 PUSH2 0x2AE JUMP JUMPDEST PUSH0 DUP2 SWAP1 SSTORE POP POP POP JUMP JUMPDEST PUSH0 PUSH0 REVERT JUMPDEST PUSH0 DUP2 SWAP1 POP SWAP2 SWAP1 POP JUMP JUMPDEST PUSH2 0x18E DUP2 PUSH2 0x17C JUMP JUMPDEST DUP2 EQ PUSH2 0x198 JUMPI PUSH0 PUSH0 REVERT JUMPDEST POP JUMP JUMPDEST PUSH0 DUP2 CALLDATALOAD SWAP1 POP PUSH2 0x1A9 DUP2 PUSH2 0x185 JUMP JUMPDEST SWAP3 SWAP2 POP POP JUMP JUMPDEST PUSH0 PUSH1 0x20 DUP3 DUP5 SUB SLT ISZERO PUSH2 0x1C4 JUMPI PUSH2 0x1C3 PUSH2 0x178 JUMP JUMPDEST JUMPDEST PUSH0 PUSH2 0x1D1 DUP5 DUP3 DUP6 ADD PUSH2 0x19B JUMP JUMPDEST SWAP2 POP POP SWAP3 SWAP2 POP POP JUMP JUMPDEST PUSH2 0x1E3 DUP2 PUSH2 0x17C JUMP JUMPDEST DUP3 MSTORE POP POP JUMP JUMPDEST PUSH0 PUSH1 0x20 DUP3 ADD SWAP1 POP PUSH2 0x1FC PUSH0 DUP4 ADD DUP5 PUSH2 0x1DA JUMP JUMPDEST SWAP3 SWAP2 POP POP JUMP JUMPDEST PUSH0 PUSH0 PUSH1 0x40 DUP4 DUP6 SUB SLT ISZERO PUSH2 0x218 JUMPI PUSH2 0x217 PUSH2 0x178 JUMP JUMPDEST JUMPDEST PUSH0 PUSH2 0x225 DUP6 DUP3 DUP7 ADD PUSH2 0x19B JUMP JUMPDEST SWAP3 POP POP PUSH1 0x20 PUSH2 0x236 DUP6 DUP3 DUP7 ADD PUSH2 0x19B JUMP JUMPDEST SWAP2 POP POP SWAP3 POP SWAP3 SWAP1 POP JUMP JUMPDEST PUSH32 0x4E487B7100000000000000000000000000000000000000000000000000000000 PUSH0 MSTORE PUSH1 0x11 PUSH1 0x4 MSTORE PUSH1 0x24 PUSH0 REVERT JUMPDEST PUSH0 PUSH2 0x277 DUP3 PUSH2 0x17C JUMP JUMPDEST SWAP2 POP PUSH2 0x282 DUP4 PUSH2 0x17C JUMP JUMPDEST SWAP3 POP DUP3 DUP3 MUL PUSH2 0x290 DUP2 PUSH2 0x17C JUMP JUMPDEST SWAP2 POP DUP3 DUP3 DIV DUP5 EQ DUP4 ISZERO OR PUSH2 0x2A7 JUMPI PUSH2 0x2A6 PUSH2 0x240 JUMP JUMPDEST JUMPDEST POP SWAP3 SWAP2 POP POP JUMP JUMPDEST PUSH0 PUSH2 0x2B8 DUP3 PUSH2 0x17C JUMP JUMPDEST SWAP2 POP PUSH2 0x2C3 DUP4 PUSH2 0x17C JUMP JUMPDEST SWAP3 POP DUP3 DUP3 ADD SWAP1 POP DUP1 DUP3 GT ISZERO PUSH2 0x2DB JUMPI PUSH2 0x2DA PUSH2 0x240 JUMP JUMPDEST JUMPDEST SWAP3 SWAP2 POP POP JUMP INVALID LOG2 PUSH5 0x6970667358 0x22 SLT KECCAK256 DUP5 ADDRESS 0xCD CALLCODE DUP7 DUP11 MSTORE8 SWAP14 CODESIZE STATICCALL PUSH25 0xCD2DCB82D9D7E92E3DA6DF77CEF1D4C39BB814670F64736F6C PUSH4 0x4300081E STOP CALLER "
				},
				"gasEstimates": {
					"creation": {
						"codeDepositCost": "158200",
						"executionCost": "200",
						"totalCost": "158400"
					},
					"external": {
						"calculateSum(uint256,uint256)": "infinite",
						"scaleValue(uint256)": "infinite",
						"scaledValue()": "2447",
						"setTimeStamp(uint256)": "infinite",
						"sum()": "2424",
						"timestamp()": "2491"
					}
				},
				"methodIdentifiers": {
					"calculateSum(uint256,uint256)": "ea4097bd",
					"scaleValue(uint256)": "b6071898",
					"scaledValue()": "a1ad01ac",
					"setTimeStamp(uint256)": "13e43bc6",
					"sum()": "853255cc",
					"timestamp()": "b80777ea"
				}
			},
			"storageLayout": {
				"storage": [
					{
						"astId": 3,
						"contract": "Operators_conversions_and_timeUnits.sol:TimeAndMath",
						"label": "sum",
						"offset": 0,
						"slot": "0",
						"type": "t_uint256"
					},
					{
						"astId": 5,
						"contract": "Operators_conversions_and_timeUnits.sol:TimeAndMath",
						"label": "scaledValue",
						"offset": 0,
						"slot": "1",
						"type": "t_uint256"
					},
					{
						"astId": 7,
						"contract": "Operators_conversions_and_timeUnits.sol:TimeAndMath",
						"label": "timestamp",
						"offset": 0,
						"slot": "2",
						"type": "t_uint256"
					}
				],
				"types": {
					"t_uint256": {
						"encoding": "inplace",
						"label": "uint256",
						"numberOfBytes": "32"
					}
				}
			},
			"userdoc": {
				"kind": "user",
				"methods": {},
				"version": 1
			}
		}
	}
}