{
	"Send_and_Receive_ether.sol": {
		"EtherHandler": {
			"abi": [
				{
					"stateMutability": "payable",
					"type": "fallback"
				},
				{
					"inputs": [],
					"name": "getBalance",
					"outputs": [
						{
							"internalType": "uint256",
							"name": "",
							"type": "uint256"
						}
					],
					"stateMutability": "view",
					"type": "function"
				},
				{
					"inputs": [
						{
							"internalType": "address payable",
							"name": "_to",
							"type": "address"
						}
					],
					"name": "sendViaCall",
					"outputs": [],
					"stateMutability": "payable",
					"type": "function"
				},
				{
					"inputs": [
						{
							"internalType": "address payable",
							"name": "_to",
							"type": "address"
						}
					],
					"name": "sendViaTransfer",
					"outputs": [],
					"stateMutability": "payable",
					"type": "function"
				},
				{
					"stateMutability": "payable",
					"type": "receive"
				}
			],
			"devdoc": {
				"kind": "dev",
				"methods": {},
				"version": 1
			},
			"evm": {
				"assembly": "    /* \"Send_and_Receive_ether.sol\":61:640  contract EtherHandler{... */\n  mstore(0x40, 0x80)\n  callvalue\n  dup1\n  iszero\n  tag_1\n  jumpi\n  revert(0x00, 0x00)\ntag_1:\n  pop\n  dataSize(sub_0)\n  dup1\n  dataOffset(sub_0)\n  0x00\n  codecopy\n  0x00\n  return\nstop\n\nsub_0: assembly {\n        /* \"Send_and_Receive_ether.sol\":61:640  contract EtherHandler{... */\n      mstore(0x40, 0x80)\n      jumpi(tag_1, lt(calldatasize, 0x04))\n      shr(0xe0, calldataload(0x00))\n      dup1\n      0x12065fe0\n      eq\n      tag_3\n      jumpi\n      dup1\n      0x636e082b\n      eq\n      tag_4\n      jumpi\n      dup1\n      0x830c29ae\n      eq\n      tag_5\n      jumpi\n      jump(tag_2)\n    tag_1:\n    tag_2:\n      stop\n        /* \"Send_and_Receive_ether.sol\":183:282  function getBalance() public view returns (uint256) {... */\n    tag_3:\n      callvalue\n      dup1\n      iszero\n      tag_10\n      jumpi\n      revert(0x00, 0x00)\n    tag_10:\n      pop\n      tag_11\n      tag_12\n      jump\t// in\n    tag_11:\n      mload(0x40)\n      tag_13\n      swap2\n      swap1\n      tag_14\n      jump\t// in\n    tag_13:\n      mload(0x40)\n      dup1\n      swap2\n      sub\n      swap1\n      return\n        /* \"Send_and_Receive_ether.sol\":323:426  function sendViaTransfer(address payable _to) public payable {... */\n    tag_4:\n      tag_15\n      0x04\n      dup1\n      calldatasize\n      sub\n      dup2\n      add\n      swap1\n      tag_16\n      swap2\n      swap1\n      tag_17\n      jump\t// in\n    tag_16:\n      tag_18\n      jump\t// in\n    tag_15:\n      stop\n        /* \"Send_and_Receive_ether.sol\":463:637  function sendViaCall(address payable _to) public payable{... */\n    tag_5:\n      tag_19\n      0x04\n      dup1\n      calldatasize\n      sub\n      dup2\n      add\n      swap1\n      tag_20\n      swap2\n      swap1\n      tag_17\n      jump\t// in\n    tag_20:\n      tag_21\n      jump\t// in\n    tag_19:\n      stop\n        /* \"Send_and_Receive_ether.sol\":183:282  function getBalance() public view returns (uint256) {... */\n    tag_12:\n        /* \"Send_and_Receive_ether.sol\":226:233  uint256 */\n      0x00\n        /* \"Send_and_Receive_ether.sol\":253:274  address(this).balance */\n      selfbalance\n        /* \"Send_and_Receive_ether.sol\":246:274  return address(this).balance */\n      swap1\n      pop\n        /* \"Send_and_Receive_ether.sol\":183:282  function getBalance() public view returns (uint256) {... */\n      swap1\n      jump\t// out\n        /* \"Send_and_Receive_ether.sol\":323:426  function sendViaTransfer(address payable _to) public payable {... */\n    tag_18:\n        /* \"Send_and_Receive_ether.sol\":395:398  _to */\n      dup1\n        /* \"Send_and_Receive_ether.sol\":395:407  _to.transfer */\n      0xffffffffffffffffffffffffffffffffffffffff\n      and\n        /* \"Send_and_Receive_ether.sol\":395:418  _to.transfer(msg.value) */\n      0x08fc\n        /* \"Send_and_Receive_ether.sol\":408:417  msg.value */\n      callvalue\n        /* \"Send_and_Receive_ether.sol\":395:418  _to.transfer(msg.value) */\n      swap1\n      dup2\n      iszero\n      mul\n      swap1\n      mload(0x40)\n      0x00\n      mload(0x40)\n      dup1\n      dup4\n      sub\n      dup2\n      dup6\n      dup9\n      dup9\n      call\n      swap4\n      pop\n      pop\n      pop\n      pop\n      iszero\n      dup1\n      iszero\n      tag_25\n      jumpi\n      returndatacopy(0x00, 0x00, returndatasize)\n      revert(0x00, returndatasize)\n    tag_25:\n      pop\n        /* \"Send_and_Receive_ether.sol\":323:426  function sendViaTransfer(address payable _to) public payable {... */\n      pop\n      jump\t// out\n        /* \"Send_and_Receive_ether.sol\":463:637  function sendViaCall(address payable _to) public payable{... */\n    tag_21:\n        /* \"Send_and_Receive_ether.sol\":531:543  bool success */\n      0x00\n        /* \"Send_and_Receive_ether.sol\":548:551  _to */\n      dup2\n        /* \"Send_and_Receive_ether.sol\":548:556  _to.call */\n      0xffffffffffffffffffffffffffffffffffffffff\n      and\n        /* \"Send_and_Receive_ether.sol\":564:573  msg.value */\n      callvalue\n        /* \"Send_and_Receive_ether.sol\":548:578  _to.call{value: msg.value}(\"\") */\n      mload(0x40)\n      tag_27\n      swap1\n      tag_28\n      jump\t// in\n    tag_27:\n      0x00\n      mload(0x40)\n      dup1\n      dup4\n      sub\n      dup2\n      dup6\n      dup8\n      gas\n      call\n      swap3\n      pop\n      pop\n      pop\n      returndatasize\n      dup1\n      0x00\n      dup2\n      eq\n      tag_31\n      jumpi\n      mload(0x40)\n      swap2\n      pop\n      and(add(returndatasize, 0x3f), not(0x1f))\n      dup3\n      add\n      0x40\n      mstore\n      returndatasize\n      dup3\n      mstore\n      returndatasize\n      0x00\n      0x20\n      dup5\n      add\n      returndatacopy\n      jump(tag_30)\n    tag_31:\n      0x60\n      swap2\n      pop\n    tag_30:\n      pop\n        /* \"Send_and_Receive_ether.sol\":530:578  (bool success,) = _to.call{value: msg.value}(\"\") */\n      pop\n      swap1\n      pop\n        /* \"Send_and_Receive_ether.sol\":597:604  success */\n      dup1\n        /* \"Send_and_Receive_ether.sol\":589:629  require(success, \"Failed to send Ether\") */\n      tag_32\n      jumpi\n      mload(0x40)\n      0x08c379a000000000000000000000000000000000000000000000000000000000\n      dup2\n      mstore\n      0x04\n      add\n      tag_33\n      swap1\n      tag_34\n      jump\t// in\n    tag_33:\n      mload(0x40)\n      dup1\n      swap2\n      sub\n      swap1\n      revert\n    tag_32:\n        /* \"Send_and_Receive_ether.sol\":519:637  {... */\n      pop\n        /* \"Send_and_Receive_ether.sol\":463:637  function sendViaCall(address payable _to) public payable{... */\n      pop\n      jump\t// out\n        /* \"#utility.yul\":7:84   */\n    tag_35:\n        /* \"#utility.yul\":44:51   */\n      0x00\n        /* \"#utility.yul\":73:78   */\n      dup2\n        /* \"#utility.yul\":62:78   */\n      swap1\n      pop\n        /* \"#utility.yul\":7:84   */\n      swap2\n      swap1\n      pop\n      jump\t// out\n        /* \"#utility.yul\":90:208   */\n    tag_36:\n        /* \"#utility.yul\":177:201   */\n      tag_53\n        /* \"#utility.yul\":195:200   */\n      dup2\n        /* \"#utility.yul\":177:201   */\n      tag_35\n      jump\t// in\n    tag_53:\n        /* \"#utility.yul\":172:175   */\n      dup3\n        /* \"#utility.yul\":165:202   */\n      mstore\n        /* \"#utility.yul\":90:208   */\n      pop\n      pop\n      jump\t// out\n        /* \"#utility.yul\":214:436   */\n    tag_14:\n        /* \"#utility.yul\":307:311   */\n      0x00\n        /* \"#utility.yul\":345:347   */\n      0x20\n        /* \"#utility.yul\":334:343   */\n      dup3\n        /* \"#utility.yul\":330:348   */\n      add\n        /* \"#utility.yul\":322:348   */\n      swap1\n      pop\n        /* \"#utility.yul\":358:429   */\n      tag_55\n        /* \"#utility.yul\":426:427   */\n      0x00\n        /* \"#utility.yul\":415:424   */\n      dup4\n        /* \"#utility.yul\":411:428   */\n      add\n        /* \"#utility.yul\":402:408   */\n      dup5\n        /* \"#utility.yul\":358:429   */\n      tag_36\n      jump\t// in\n    tag_55:\n        /* \"#utility.yul\":214:436   */\n      swap3\n      swap2\n      pop\n      pop\n      jump\t// out\n        /* \"#utility.yul\":523:640   */\n    tag_38:\n        /* \"#utility.yul\":632:633   */\n      0x00\n        /* \"#utility.yul\":629:630   */\n      0x00\n        /* \"#utility.yul\":622:634   */\n      revert\n        /* \"#utility.yul\":769:895   */\n    tag_40:\n        /* \"#utility.yul\":806:813   */\n      0x00\n        /* \"#utility.yul\":846:888   */\n      0xffffffffffffffffffffffffffffffffffffffff\n        /* \"#utility.yul\":839:844   */\n      dup3\n        /* \"#utility.yul\":835:889   */\n      and\n        /* \"#utility.yul\":824:889   */\n      swap1\n      pop\n        /* \"#utility.yul\":769:895   */\n      swap2\n      swap1\n      pop\n      jump\t// out\n        /* \"#utility.yul\":901:1005   */\n    tag_41:\n        /* \"#utility.yul\":946:953   */\n      0x00\n        /* \"#utility.yul\":975:999   */\n      tag_61\n        /* \"#utility.yul\":993:998   */\n      dup3\n        /* \"#utility.yul\":975:999   */\n      tag_40\n      jump\t// in\n    tag_61:\n        /* \"#utility.yul\":964:999   */\n      swap1\n      pop\n        /* \"#utility.yul\":901:1005   */\n      swap2\n      swap1\n      pop\n      jump\t// out\n        /* \"#utility.yul\":1011:1149   */\n    tag_42:\n        /* \"#utility.yul\":1092:1124   */\n      tag_63\n        /* \"#utility.yul\":1118:1123   */\n      dup2\n        /* \"#utility.yul\":1092:1124   */\n      tag_41\n      jump\t// in\n    tag_63:\n        /* \"#utility.yul\":1085:1090   */\n      dup2\n        /* \"#utility.yul\":1082:1125   */\n      eq\n        /* \"#utility.yul\":1072:1143   */\n      tag_64\n      jumpi\n        /* \"#utility.yul\":1139:1140   */\n      0x00\n        /* \"#utility.yul\":1136:1137   */\n      0x00\n        /* \"#utility.yul\":1129:1141   */\n      revert\n        /* \"#utility.yul\":1072:1143   */\n    tag_64:\n        /* \"#utility.yul\":1011:1149   */\n      pop\n      jump\t// out\n        /* \"#utility.yul\":1155:1310   */\n    tag_43:\n        /* \"#utility.yul\":1209:1214   */\n      0x00\n        /* \"#utility.yul\":1247:1253   */\n      dup2\n        /* \"#utility.yul\":1234:1254   */\n      calldataload\n        /* \"#utility.yul\":1225:1254   */\n      swap1\n      pop\n        /* \"#utility.yul\":1263:1304   */\n      tag_66\n        /* \"#utility.yul\":1298:1303   */\n      dup2\n        /* \"#utility.yul\":1263:1304   */\n      tag_42\n      jump\t// in\n    tag_66:\n        /* \"#utility.yul\":1155:1310   */\n      swap3\n      swap2\n      pop\n      pop\n      jump\t// out\n        /* \"#utility.yul\":1316:1661   */\n    tag_17:\n        /* \"#utility.yul\":1383:1389   */\n      0x00\n        /* \"#utility.yul\":1432:1434   */\n      0x20\n        /* \"#utility.yul\":1420:1429   */\n      dup3\n        /* \"#utility.yul\":1411:1418   */\n      dup5\n        /* \"#utility.yul\":1407:1430   */\n      sub\n        /* \"#utility.yul\":1403:1435   */\n      slt\n        /* \"#utility.yul\":1400:1519   */\n      iszero\n      tag_68\n      jumpi\n        /* \"#utility.yul\":1438:1517   */\n      tag_69\n      tag_38\n      jump\t// in\n    tag_69:\n        /* \"#utility.yul\":1400:1519   */\n    tag_68:\n        /* \"#utility.yul\":1558:1559   */\n      0x00\n        /* \"#utility.yul\":1583:1644   */\n      tag_70\n        /* \"#utility.yul\":1636:1643   */\n      dup5\n        /* \"#utility.yul\":1627:1633   */\n      dup3\n        /* \"#utility.yul\":1616:1625   */\n      dup6\n        /* \"#utility.yul\":1612:1634   */\n      add\n        /* \"#utility.yul\":1583:1644   */\n      tag_43\n      jump\t// in\n    tag_70:\n        /* \"#utility.yul\":1573:1644   */\n      swap2\n      pop\n        /* \"#utility.yul\":1529:1654   */\n      pop\n        /* \"#utility.yul\":1316:1661   */\n      swap3\n      swap2\n      pop\n      pop\n      jump\t// out\n        /* \"#utility.yul\":1667:1814   */\n    tag_44:\n        /* \"#utility.yul\":1768:1779   */\n      0x00\n        /* \"#utility.yul\":1805:1808   */\n      dup2\n        /* \"#utility.yul\":1790:1808   */\n      swap1\n      pop\n        /* \"#utility.yul\":1667:1814   */\n      swap3\n      swap2\n      pop\n      pop\n      jump\t// out\n        /* \"#utility.yul\":1820:1934   */\n    tag_45:\n      pop\n      jump\t// out\n        /* \"#utility.yul\":1940:2338   */\n    tag_46:\n        /* \"#utility.yul\":2099:2102   */\n      0x00\n        /* \"#utility.yul\":2120:2203   */\n      tag_74\n        /* \"#utility.yul\":2201:2202   */\n      0x00\n        /* \"#utility.yul\":2196:2199   */\n      dup4\n        /* \"#utility.yul\":2120:2203   */\n      tag_44\n      jump\t// in\n    tag_74:\n        /* \"#utility.yul\":2113:2203   */\n      swap2\n      pop\n        /* \"#utility.yul\":2212:2305   */\n      tag_75\n        /* \"#utility.yul\":2301:2304   */\n      dup3\n        /* \"#utility.yul\":2212:2305   */\n      tag_45\n      jump\t// in\n    tag_75:\n        /* \"#utility.yul\":2330:2331   */\n      0x00\n        /* \"#utility.yul\":2325:2328   */\n      dup3\n        /* \"#utility.yul\":2321:2332   */\n      add\n        /* \"#utility.yul\":2314:2332   */\n      swap1\n      pop\n        /* \"#utility.yul\":1940:2338   */\n      swap2\n      swap1\n      pop\n      jump\t// out\n        /* \"#utility.yul\":2344:2723   */\n    tag_28:\n        /* \"#utility.yul\":2528:2531   */\n      0x00\n        /* \"#utility.yul\":2550:2697   */\n      tag_77\n        /* \"#utility.yul\":2693:2696   */\n      dup3\n        /* \"#utility.yul\":2550:2697   */\n      tag_46\n      jump\t// in\n    tag_77:\n        /* \"#utility.yul\":2543:2697   */\n      swap2\n      pop\n        /* \"#utility.yul\":2714:2717   */\n      dup2\n        /* \"#utility.yul\":2707:2717   */\n      swap1\n      pop\n        /* \"#utility.yul\":2344:2723   */\n      swap2\n      swap1\n      pop\n      jump\t// out\n        /* \"#utility.yul\":2729:2898   */\n    tag_47:\n        /* \"#utility.yul\":2813:2824   */\n      0x00\n        /* \"#utility.yul\":2847:2853   */\n      dup3\n        /* \"#utility.yul\":2842:2845   */\n      dup3\n        /* \"#utility.yul\":2835:2854   */\n      mstore\n        /* \"#utility.yul\":2887:2891   */\n      0x20\n        /* \"#utility.yul\":2882:2885   */\n      dup3\n        /* \"#utility.yul\":2878:2892   */\n      add\n        /* \"#utility.yul\":2863:2892   */\n      swap1\n      pop\n        /* \"#utility.yul\":2729:2898   */\n      swap3\n      swap2\n      pop\n      pop\n      jump\t// out\n        /* \"#utility.yul\":2904:3074   */\n    tag_48:\n        /* \"#utility.yul\":3044:3066   */\n      0x4661696c656420746f2073656e64204574686572000000000000000000000000\n        /* \"#utility.yul\":3040:3041   */\n      0x00\n        /* \"#utility.yul\":3032:3038   */\n      dup3\n        /* \"#utility.yul\":3028:3042   */\n      add\n        /* \"#utility.yul\":3021:3067   */\n      mstore\n        /* \"#utility.yul\":2904:3074   */\n      pop\n      jump\t// out\n        /* \"#utility.yul\":3080:3446   */\n    tag_49:\n        /* \"#utility.yul\":3222:3225   */\n      0x00\n        /* \"#utility.yul\":3243:3310   */\n      tag_81\n        /* \"#utility.yul\":3307:3309   */\n      0x14\n        /* \"#utility.yul\":3302:3305   */\n      dup4\n        /* \"#utility.yul\":3243:3310   */\n      tag_47\n      jump\t// in\n    tag_81:\n        /* \"#utility.yul\":3236:3310   */\n      swap2\n      pop\n        /* \"#utility.yul\":3319:3412   */\n      tag_82\n        /* \"#utility.yul\":3408:3411   */\n      dup3\n        /* \"#utility.yul\":3319:3412   */\n      tag_48\n      jump\t// in\n    tag_82:\n        /* \"#utility.yul\":3437:3439   */\n      0x20\n        /* \"#utility.yul\":3432:3435   */\n      dup3\n        /* \"#utility.yul\":3428:3440   */\n      add\n        /* \"#utility.yul\":3421:3440   */\n      swap1\n      pop\n        /* \"#utility.yul\":3080:3446   */\n      swap2\n      swap1\n      pop\n      jump\t// out\n        /* \"#utility.yul\":3452:3871   */\n    tag_34:\n        /* \"#utility.yul\":3618:3622   */\n      0x00\n        /* \"#utility.yul\":3656:3658   */\n      0x20\n        /* \"#utility.yul\":3645:3654   */\n      dup3\n        /* \"#utility.yul\":3641:3659   */\n      add\n        /* \"#utility.yul\":3633:3659   */\n      swap1\n      pop\n        /* \"#utility.yul\":3705:3714   */\n      dup2\n        /* \"#utility.yul\":3699:3703   */\n      dup2\n        /* \"#utility.yul\":3695:3715   */\n      sub\n        /* \"#utility.yul\":3691:3692   */\n      0x00\n        /* \"#utility.yul\":3680:3689   */\n      dup4\n        /* \"#utility.yul\":3676:3693   */\n      add\n        /* \"#utility.yul\":3669:3716   */\n      mstore\n        /* \"#utility.yul\":3733:3864   */\n      tag_84\n        /* \"#utility.yul\":3859:3863   */\n      dup2\n        /* \"#utility.yul\":3733:3864   */\n      tag_49\n      jump\t// in\n    tag_84:\n        /* \"#utility.yul\":3725:3864   */\n      swap1\n      pop\n        /* \"#utility.yul\":3452:3871   */\n      swap2\n      swap1\n      pop\n      jump\t// out\n\n    auxdata: 0xa2646970667358221220c26996a006228af53e89bdc2a5cbd9da44853a6f18ec24406524d29ad8b7d32664736f6c634300081e0033\n}\n",
				"bytecode": {
					"linkReferences": {},
					"object": "6080604052348015600e575f5ffd5b5061033f8061001c5f395ff3fe608060405260043610610037575f3560e01c806312065fe01461003a578063636e082b14610064578063830c29ae1461008057610038565b5b005b348015610045575f5ffd5b5061004e61009c565b60405161005b91906101ae565b60405180910390f35b61007e60048036038101906100799190610225565b6100a3565b005b61009a60048036038101906100959190610225565b6100ea565b005b5f47905090565b8073ffffffffffffffffffffffffffffffffffffffff166108fc3490811502906040515f60405180830381858888f193505050501580156100e6573d5f5f3e3d5ffd5b5050565b5f8173ffffffffffffffffffffffffffffffffffffffff163460405161010f9061027d565b5f6040518083038185875af1925050503d805f8114610149576040519150601f19603f3d011682016040523d82523d5f602084013e61014e565b606091505b5050905080610192576040517f08c379a0000000000000000000000000000000000000000000000000000000008152600401610189906102eb565b60405180910390fd5b5050565b5f819050919050565b6101a881610196565b82525050565b5f6020820190506101c15f83018461019f565b92915050565b5f5ffd5b5f73ffffffffffffffffffffffffffffffffffffffff82169050919050565b5f6101f4826101cb565b9050919050565b610204816101ea565b811461020e575f5ffd5b50565b5f8135905061021f816101fb565b92915050565b5f6020828403121561023a576102396101c7565b5b5f61024784828501610211565b91505092915050565b5f81905092915050565b50565b5f6102685f83610250565b91506102738261025a565b5f82019050919050565b5f6102878261025d565b9150819050919050565b5f82825260208201905092915050565b7f4661696c656420746f2073656e642045746865720000000000000000000000005f82015250565b5f6102d5601483610291565b91506102e0826102a1565b602082019050919050565b5f6020820190508181035f830152610302816102c9565b905091905056fea2646970667358221220c26996a006228af53e89bdc2a5cbd9da44853a6f18ec24406524d29ad8b7d32664736f6c634300081e0033",
					"opcodes": "PUSH1 0x80 PUSH1 0x40 MSTORE CALLVALUE DUP1 ISZERO PUSH1 0xE JUMPI PUSH0 PUSH0 REVERT JUMPDEST POP PUSH2 0x33F DUP1 PUSH2 0x1C PUSH0 CODECOPY PUSH0 RETURN INVALID PUSH1 0x80 PUSH1 0x40 MSTORE PUSH1 0x4 CALLDATASIZE LT PUSH2 0x37 JUMPI PUSH0 CALLDATALOAD PUSH1 0xE0 SHR DUP1 PUSH4 0x12065FE0 EQ PUSH2 0x3A JUMPI DUP1 PUSH4 0x636E082B EQ PUSH2 0x64 JUMPI DUP1 PUSH4 0x830C29AE EQ PUSH2 0x80 JUMPI PUSH2 0x38 JUMP JUMPDEST JUMPDEST STOP JUMPDEST CALLVALUE DUP1 ISZERO PUSH2 0x45 JUMPI PUSH0 PUSH0 REVERT JUMPDEST POP PUSH2 0x4E PUSH2 0x9C JUMP JUMPDEST PUSH1 0x40 MLOAD PUSH2 0x5B SWAP2 SWAP1 PUSH2 0x1AE JUMP JUMPDEST PUSH1 0x40 MLOAD DUP1 SWAP2 SUB SWAP1 RETURN JUMPDEST PUSH2 0x7E PUSH1 0x4 DUP1 CALLDATASIZE SUB DUP2 ADD SWAP1 PUSH2 0x79 SWAP2 SWAP1 PUSH2 0x225 JUMP JUMPDEST PUSH2 0xA3 JUMP JUMPDEST STOP JUMPDEST PUSH2 0x9A PUSH1 0x4 DUP1 CALLDATASIZE SUB DUP2 ADD SWAP1 PUSH2 0x95 SWAP2 SWAP1 PUSH2 0x225 JUMP JUMPDEST PUSH2 0xEA JUMP JUMPDEST STOP JUMPDEST PUSH0 SELFBALANCE SWAP1 POP SWAP1 JUMP JUMPDEST DUP1 PUSH20 0xFFFFFFFFFFFFFFFFFFFFFFFFFFFFFFFFFFFFFFFF AND PUSH2 0x8FC CALLVALUE SWAP1 DUP2 ISZERO MUL SWAP1 PUSH1 0x40 MLOAD PUSH0 PUSH1 0x40 MLOAD DUP1 DUP4 SUB DUP2 DUP6 DUP9 DUP9 CALL SWAP4 POP POP POP POP ISZERO DUP1 ISZERO PUSH2 0xE6 JUMPI RETURNDATASIZE PUSH0 PUSH0 RETURNDATACOPY RETURNDATASIZE PUSH0 REVERT JUMPDEST POP POP JUMP JUMPDEST PUSH0 DUP2 PUSH20 0xFFFFFFFFFFFFFFFFFFFFFFFFFFFFFFFFFFFFFFFF AND CALLVALUE PUSH1 0x40 MLOAD PUSH2 0x10F SWAP1 PUSH2 0x27D JUMP JUMPDEST PUSH0 PUSH1 0x40 MLOAD DUP1 DUP4 SUB DUP2 DUP6 DUP8 GAS CALL SWAP3 POP POP POP RETURNDATASIZE DUP1 PUSH0 DUP2 EQ PUSH2 0x149 JUMPI PUSH1 0x40 MLOAD SWAP2 POP PUSH1 0x1F NOT PUSH1 0x3F RETURNDATASIZE ADD AND DUP3 ADD PUSH1 0x40 MSTORE RETURNDATASIZE DUP3 MSTORE RETURNDATASIZE PUSH0 PUSH1 0x20 DUP5 ADD RETURNDATACOPY PUSH2 0x14E JUMP JUMPDEST PUSH1 0x60 SWAP2 POP JUMPDEST POP POP SWAP1 POP DUP1 PUSH2 0x192 JUMPI PUSH1 0x40 MLOAD PUSH32 0x8C379A000000000000000000000000000000000000000000000000000000000 DUP2 MSTORE PUSH1 0x4 ADD PUSH2 0x189 SWAP1 PUSH2 0x2EB JUMP JUMPDEST PUSH1 0x40 MLOAD DUP1 SWAP2 SUB SWAP1 REVERT JUMPDEST POP POP JUMP JUMPDEST PUSH0 DUP2 SWAP1 POP SWAP2 SWAP1 POP JUMP JUMPDEST PUSH2 0x1A8 DUP2 PUSH2 0x196 JUMP JUMPDEST DUP3 MSTORE POP POP JUMP JUMPDEST PUSH0 PUSH1 0x20 DUP3 ADD SWAP1 POP PUSH2 0x1C1 PUSH0 DUP4 ADD DUP5 PUSH2 0x19F JUMP JUMPDEST SWAP3 SWAP2 POP POP JUMP JUMPDEST PUSH0 PUSH0 REVERT JUMPDEST PUSH0 PUSH20 0xFFFFFFFFFFFFFFFFFFFFFFFFFFFFFFFFFFFFFFFF DUP3 AND SWAP1 POP SWAP2 SWAP1 POP JUMP JUMPDEST PUSH0 PUSH2 0x1F4 DUP3 PUSH2 0x1CB JUMP JUMPDEST SWAP1 POP SWAP2 SWAP1 POP JUMP JUMPDEST PUSH2 0x204 DUP2 PUSH2 0x1EA JUMP JUMPDEST DUP2 EQ PUSH2 0x20E JUMPI PUSH0 PUSH0 REVERT JUMPDEST POP JUMP JUMPDEST PUSH0 DUP2 CALLDATALOAD SWAP1 POP PUSH2 0x21F DUP2 PUSH2 0x1FB JUMP JUMPDEST SWAP3 SWAP2 POP POP JUMP JUMPDEST PUSH0 PUSH1 0x20 DUP3 DUP5 SUB SLT ISZERO PUSH2 0x23A JUMPI PUSH2 0x239 PUSH2 0x1C7 JUMP JUMPDEST JUMPDEST PUSH0 PUSH2 0x247 DUP5 DUP3 DUP6 ADD PUSH2 0x211 JUMP JUMPDEST SWAP2 POP POP SWAP3 SWAP2 POP POP JUMP JUMPDEST PUSH0 DUP2 SWAP1 POP SWAP3 SWAP2 POP POP JUMP JUMPDEST POP JUMP JUMPDEST PUSH0 PUSH2 0x268 PUSH0 DUP4 PUSH2 0x250 JUMP JUMPDEST SWAP2 POP PUSH2 0x273 DUP3 PUSH2 0x25A JUMP JUMPDEST PUSH0 DUP3 ADD SWAP1 POP SWAP2 SWAP1 POP JUMP JUMPDEST PUSH0 PUSH2 0x287 DUP3 PUSH2 0x25D JUMP JUMPDEST SWAP2 POP DUP2 SWAP1 POP SWAP2 SWAP1 POP JUMP JUMPDEST PUSH0 DUP3 DUP3 MSTORE PUSH1 0x20 DUP3 ADD SWAP1 POP SWAP3 SWAP2 POP POP JUMP JUMPDEST PUSH32 0x4661696C656420746F2073656E64204574686572000000000000000000000000 PUSH0 DUP3 ADD MSTORE POP JUMP JUMPDEST PUSH0 PUSH2 0x2D5 PUSH1 0x14 DUP4 PUSH2 0x291 JUMP JUMPDEST SWAP2 POP PUSH2 0x2E0 DUP3 PUSH2 0x2A1 JUMP JUMPDEST PUSH1 0x20 DUP3 ADD SWAP1 POP SWAP2 SWAP1 POP JUMP JUMPDEST PUSH0 PUSH1 0x20 DUP3 ADD SWAP1 POP DUP2 DUP2 SUB PUSH0 DUP4 ADD MSTORE PUSH2 0x302 DUP2 PUSH2 0x2C9 JUMP JUMPDEST SWAP1 POP SWAP2 SWAP1 POP JUMP INVALID LOG2 PUSH5 0x6970667358 0x22 SLT KECCAK256 0xC2 PUSH10 0x96A006228AF53E89BDC2 0xA5 0xCB 0xD9 0xDA PREVRANDAO DUP6 GASPRICE PUSH16 0x18EC24406524D29AD8B7D32664736F6C PUSH4 0x4300081E STOP CALLER "
				},
				"gasEstimates": {
					"creation": {
						"codeDepositCost": "166200",
						"executionCost": "206",
						"totalCost": "166406"
					},
					"external": {
						"": "128",
						"getBalance()": "312",
						"sendViaCall(address)": "infinite",
						"sendViaTransfer(address)": "infinite"
					}
				},
				"methodIdentifiers": {
					"getBalance()": "12065fe0",
					"sendViaCall(address)": "830c29ae",
					"sendViaTransfer(address)": "636e082b"
				}
			},
			"storageLayout": {
				"storage": [],
				"types": null
			},
			"userdoc": {
				"kind": "user",
				"methods": {},
				"version": 1
			}
		}
	}
}