{
	"Structs_enums_events.sol": {
		"AdvancedFeatures": {
			"abi": [
				{
					"anonymous": false,
					"inputs": [
						{
							"indexed": true,
							"internalType": "address",
							"name": "voter",
							"type": "address"
						},
						{
							"indexed": true,
							"internalType": "uint256",
							"name": "proposal",
							"type": "uint256"
						}
					],
					"name": "VoteCast",
					"type": "event"
				},
				{
					"inputs": [
						{
							"internalType": "uint256",
							"name": "proposal",
							"type": "uint256"
						}
					],
					"name": "castVote",
					"outputs": [],
					"stateMutability": "nonpayable",
					"type": "function"
				},
				{
					"inputs": [],
					"name": "startVoting",
					"outputs": [],
					"stateMutability": "nonpayable",
					"type": "function"
				},
				{
					"inputs": [],
					"name": "state",
					"outputs": [
						{
							"internalType": "enum AdvancedFeatures.State",
							"name": "",
							"type": "uint8"
						}
					],
					"stateMutability": "view",
					"type": "function"
				},
				{
					"inputs": [
						{
							"internalType": "address",
							"name": "",
							"type": "address"
						}
					],
					"name": "voters",
					"outputs": [
						{
							"internalType": "uint256",
							"name": "weight",
							"type": "uint256"
						},
						{
							"internalType": "bool",
							"name": "voted",
							"type": "bool"
						},
						{
							"internalType": "address",
							"name": "delegate",
							"type": "address"
						},
						{
							"internalType": "uint256",
							"name": "vote",
							"type": "uint256"
						}
					],
					"stateMutability": "view",
					"type": "function"
				}
			],
			"devdoc": {
				"kind": "dev",
				"methods": {},
				"version": 1
			},
			"evm": {
				"assembly": "    /* \"Structs_enums_events.sol\":61:840  contract AdvancedFeatures{... */\n  mstore(0x40, 0x80)\n  callvalue\n  dup1\n  iszero\n  tag_1\n  jumpi\n  revert(0x00, 0x00)\ntag_1:\n  pop\n  dataSize(sub_0)\n  dup1\n  dataOffset(sub_0)\n  0x00\n  codecopy\n  0x00\n  return\nstop\n\nsub_0: assembly {\n        /* \"Structs_enums_events.sol\":61:840  contract AdvancedFeatures{... */\n      mstore(0x40, 0x80)\n      callvalue\n      dup1\n      iszero\n      tag_1\n      jumpi\n      revert(0x00, 0x00)\n    tag_1:\n      pop\n      jumpi(tag_2, lt(calldatasize, 0x04))\n      shr(0xe0, calldataload(0x00))\n      dup1\n      0x1ec6b60a\n      eq\n      tag_3\n      jumpi\n      dup1\n      0x3eb76b9c\n      eq\n      tag_4\n      jumpi\n      dup1\n      0xa3ec138d\n      eq\n      tag_5\n      jumpi\n      dup1\n      0xc19d93fb\n      eq\n      tag_6\n      jumpi\n    tag_2:\n      revert(0x00, 0x00)\n        /* \"Structs_enums_events.sol\":538:607  function startVoting() public {... */\n    tag_3:\n      tag_7\n      tag_8\n      jump\t// in\n    tag_7:\n      stop\n        /* \"Structs_enums_events.sol\":634:837  function castVote(uint proposal) public {... */\n    tag_4:\n      tag_9\n      0x04\n      dup1\n      calldatasize\n      sub\n      dup2\n      add\n      swap1\n      tag_10\n      swap2\n      swap1\n      tag_11\n      jump\t// in\n    tag_10:\n      tag_12\n      jump\t// in\n    tag_9:\n      stop\n        /* \"Structs_enums_events.sol\":460:500  mapping (address => Voter) public voters */\n    tag_5:\n      tag_13\n      0x04\n      dup1\n      calldatasize\n      sub\n      dup2\n      add\n      swap1\n      tag_14\n      swap2\n      swap1\n      tag_15\n      jump\t// in\n    tag_14:\n      tag_16\n      jump\t// in\n    tag_13:\n      mload(0x40)\n      tag_17\n      swap5\n      swap4\n      swap3\n      swap2\n      swap1\n      tag_18\n      jump\t// in\n    tag_17:\n      mload(0x40)\n      dup1\n      swap2\n      sub\n      swap1\n      return\n        /* \"Structs_enums_events.sol\":328:346  State public state */\n    tag_6:\n      tag_19\n      tag_20\n      jump\t// in\n    tag_19:\n      mload(0x40)\n      tag_21\n      swap2\n      swap1\n      tag_22\n      jump\t// in\n    tag_21:\n      mload(0x40)\n      dup1\n      swap2\n      sub\n      swap1\n      return\n        /* \"Structs_enums_events.sol\":538:607  function startVoting() public {... */\n    tag_8:\n        /* \"Structs_enums_events.sol\":587:599  State.Voting */\n      0x01\n        /* \"Structs_enums_events.sol\":579:584  state */\n      0x00\n      0x00\n        /* \"Structs_enums_events.sol\":579:599  state = State.Voting */\n      0x0100\n      exp\n      dup2\n      sload\n      dup2\n      0xff\n      mul\n      not\n      and\n      swap1\n      dup4\n      0x02\n      dup2\n      gt\n      iszero\n      tag_24\n      jumpi\n      tag_25\n      tag_26\n      jump\t// in\n    tag_25:\n    tag_24:\n      mul\n      or\n      swap1\n      sstore\n      pop\n        /* \"Structs_enums_events.sol\":538:607  function startVoting() public {... */\n      jump\t// out\n        /* \"Structs_enums_events.sol\":634:837  function castVote(uint proposal) public {... */\n    tag_12:\n        /* \"Structs_enums_events.sol\":702:714  State.Voting */\n      0x01\n        /* \"Structs_enums_events.sol\":693:714  state == State.Voting */\n      0x02\n      dup2\n      gt\n      iszero\n      tag_28\n      jumpi\n      tag_29\n      tag_26\n      jump\t// in\n    tag_29:\n    tag_28:\n        /* \"Structs_enums_events.sol\":693:698  state */\n      0x00\n      0x00\n      swap1\n      sload\n      swap1\n      0x0100\n      exp\n      swap1\n      div\n      0xff\n      and\n        /* \"Structs_enums_events.sol\":693:714  state == State.Voting */\n      0x02\n      dup2\n      gt\n      iszero\n      tag_30\n      jumpi\n      tag_31\n      tag_26\n      jump\t// in\n    tag_31:\n    tag_30:\n      eq\n        /* \"Structs_enums_events.sol\":685:740  require(state == State.Voting , \"Voting is not active\") */\n      tag_32\n      jumpi\n      mload(0x40)\n      0x08c379a000000000000000000000000000000000000000000000000000000000\n      dup2\n      mstore\n      0x04\n      add\n      tag_33\n      swap1\n      tag_34\n      jump\t// in\n    tag_33:\n      mload(0x40)\n      dup1\n      swap2\n      sub\n      swap1\n      revert\n    tag_32:\n        /* \"Structs_enums_events.sol\":778:782  true */\n      0x01\n        /* \"Structs_enums_events.sol\":751:757  voters */\n      dup1\n        /* \"Structs_enums_events.sol\":751:769  voters[msg.sender] */\n      0x00\n        /* \"Structs_enums_events.sol\":758:768  msg.sender */\n      caller\n        /* \"Structs_enums_events.sol\":751:769  voters[msg.sender] */\n      0xffffffffffffffffffffffffffffffffffffffff\n      and\n      0xffffffffffffffffffffffffffffffffffffffff\n      and\n      dup2\n      mstore\n      0x20\n      add\n      swap1\n      dup2\n      mstore\n      0x20\n      add\n      0x00\n      keccak256\n        /* \"Structs_enums_events.sol\":751:775  voters[msg.sender].voted */\n      0x01\n      add\n      0x00\n        /* \"Structs_enums_events.sol\":751:782  voters[msg.sender].voted = true */\n      0x0100\n      exp\n      dup2\n      sload\n      dup2\n      0xff\n      mul\n      not\n      and\n      swap1\n      dup4\n      iszero\n      iszero\n      mul\n      or\n      swap1\n      sstore\n      pop\n        /* \"Structs_enums_events.sol\":820:828  proposal */\n      dup1\n        /* \"Structs_enums_events.sol\":807:817  msg.sender */\n      caller\n        /* \"Structs_enums_events.sol\":798:829  VoteCast(msg.sender , proposal) */\n      0xffffffffffffffffffffffffffffffffffffffff\n      and\n      0xa36cc2bebb74db33e9f88110a07ef56e1b31b24b4c4f51b54b1664266e29f45b\n      mload(0x40)\n      mload(0x40)\n      dup1\n      swap2\n      sub\n      swap1\n      log3\n        /* \"Structs_enums_events.sol\":634:837  function castVote(uint proposal) public {... */\n      pop\n      jump\t// out\n        /* \"Structs_enums_events.sol\":460:500  mapping (address => Voter) public voters */\n    tag_16:\n      mstore(0x20, 0x01)\n      dup1\n      0x00\n      mstore\n      keccak256(0x00, 0x40)\n      0x00\n      swap2\n      pop\n      swap1\n      pop\n      dup1\n      0x00\n      add\n      sload\n      swap1\n      dup1\n      0x01\n      add\n      0x00\n      swap1\n      sload\n      swap1\n      0x0100\n      exp\n      swap1\n      div\n      0xff\n      and\n      swap1\n      dup1\n      0x01\n      add\n      0x01\n      swap1\n      sload\n      swap1\n      0x0100\n      exp\n      swap1\n      div\n      0xffffffffffffffffffffffffffffffffffffffff\n      and\n      swap1\n      dup1\n      0x02\n      add\n      sload\n      swap1\n      pop\n      dup5\n      jump\t// out\n        /* \"Structs_enums_events.sol\":328:346  State public state */\n    tag_20:\n      0x00\n      0x00\n      swap1\n      sload\n      swap1\n      0x0100\n      exp\n      swap1\n      div\n      0xff\n      and\n      dup2\n      jump\t// out\n        /* \"#utility.yul\":88:205   */\n    tag_36:\n        /* \"#utility.yul\":197:198   */\n      0x00\n        /* \"#utility.yul\":194:195   */\n      0x00\n        /* \"#utility.yul\":187:199   */\n      revert\n        /* \"#utility.yul\":334:411   */\n    tag_38:\n        /* \"#utility.yul\":371:378   */\n      0x00\n        /* \"#utility.yul\":400:405   */\n      dup2\n        /* \"#utility.yul\":389:405   */\n      swap1\n      pop\n        /* \"#utility.yul\":334:411   */\n      swap2\n      swap1\n      pop\n      jump\t// out\n        /* \"#utility.yul\":417:539   */\n    tag_39:\n        /* \"#utility.yul\":490:514   */\n      tag_62\n        /* \"#utility.yul\":508:513   */\n      dup2\n        /* \"#utility.yul\":490:514   */\n      tag_38\n      jump\t// in\n    tag_62:\n        /* \"#utility.yul\":483:488   */\n      dup2\n        /* \"#utility.yul\":480:515   */\n      eq\n        /* \"#utility.yul\":470:533   */\n      tag_63\n      jumpi\n        /* \"#utility.yul\":529:530   */\n      0x00\n        /* \"#utility.yul\":526:527   */\n      0x00\n        /* \"#utility.yul\":519:531   */\n      revert\n        /* \"#utility.yul\":470:533   */\n    tag_63:\n        /* \"#utility.yul\":417:539   */\n      pop\n      jump\t// out\n        /* \"#utility.yul\":545:684   */\n    tag_40:\n        /* \"#utility.yul\":591:596   */\n      0x00\n        /* \"#utility.yul\":629:635   */\n      dup2\n        /* \"#utility.yul\":616:636   */\n      calldataload\n        /* \"#utility.yul\":607:636   */\n      swap1\n      pop\n        /* \"#utility.yul\":645:678   */\n      tag_65\n        /* \"#utility.yul\":672:677   */\n      dup2\n        /* \"#utility.yul\":645:678   */\n      tag_39\n      jump\t// in\n    tag_65:\n        /* \"#utility.yul\":545:684   */\n      swap3\n      swap2\n      pop\n      pop\n      jump\t// out\n        /* \"#utility.yul\":690:1019   */\n    tag_11:\n        /* \"#utility.yul\":749:755   */\n      0x00\n        /* \"#utility.yul\":798:800   */\n      0x20\n        /* \"#utility.yul\":786:795   */\n      dup3\n        /* \"#utility.yul\":777:784   */\n      dup5\n        /* \"#utility.yul\":773:796   */\n      sub\n        /* \"#utility.yul\":769:801   */\n      slt\n        /* \"#utility.yul\":766:885   */\n      iszero\n      tag_67\n      jumpi\n        /* \"#utility.yul\":804:883   */\n      tag_68\n      tag_36\n      jump\t// in\n    tag_68:\n        /* \"#utility.yul\":766:885   */\n    tag_67:\n        /* \"#utility.yul\":924:925   */\n      0x00\n        /* \"#utility.yul\":949:1002   */\n      tag_69\n        /* \"#utility.yul\":994:1001   */\n      dup5\n        /* \"#utility.yul\":985:991   */\n      dup3\n        /* \"#utility.yul\":974:983   */\n      dup6\n        /* \"#utility.yul\":970:992   */\n      add\n        /* \"#utility.yul\":949:1002   */\n      tag_40\n      jump\t// in\n    tag_69:\n        /* \"#utility.yul\":939:1002   */\n      swap2\n      pop\n        /* \"#utility.yul\":895:1012   */\n      pop\n        /* \"#utility.yul\":690:1019   */\n      swap3\n      swap2\n      pop\n      pop\n      jump\t// out\n        /* \"#utility.yul\":1025:1151   */\n    tag_41:\n        /* \"#utility.yul\":1062:1069   */\n      0x00\n        /* \"#utility.yul\":1102:1144   */\n      0xffffffffffffffffffffffffffffffffffffffff\n        /* \"#utility.yul\":1095:1100   */\n      dup3\n        /* \"#utility.yul\":1091:1145   */\n      and\n        /* \"#utility.yul\":1080:1145   */\n      swap1\n      pop\n        /* \"#utility.yul\":1025:1151   */\n      swap2\n      swap1\n      pop\n      jump\t// out\n        /* \"#utility.yul\":1157:1253   */\n    tag_42:\n        /* \"#utility.yul\":1194:1201   */\n      0x00\n        /* \"#utility.yul\":1223:1247   */\n      tag_72\n        /* \"#utility.yul\":1241:1246   */\n      dup3\n        /* \"#utility.yul\":1223:1247   */\n      tag_41\n      jump\t// in\n    tag_72:\n        /* \"#utility.yul\":1212:1247   */\n      swap1\n      pop\n        /* \"#utility.yul\":1157:1253   */\n      swap2\n      swap1\n      pop\n      jump\t// out\n        /* \"#utility.yul\":1259:1381   */\n    tag_43:\n        /* \"#utility.yul\":1332:1356   */\n      tag_74\n        /* \"#utility.yul\":1350:1355   */\n      dup2\n        /* \"#utility.yul\":1332:1356   */\n      tag_42\n      jump\t// in\n    tag_74:\n        /* \"#utility.yul\":1325:1330   */\n      dup2\n        /* \"#utility.yul\":1322:1357   */\n      eq\n        /* \"#utility.yul\":1312:1375   */\n      tag_75\n      jumpi\n        /* \"#utility.yul\":1371:1372   */\n      0x00\n        /* \"#utility.yul\":1368:1369   */\n      0x00\n        /* \"#utility.yul\":1361:1373   */\n      revert\n        /* \"#utility.yul\":1312:1375   */\n    tag_75:\n        /* \"#utility.yul\":1259:1381   */\n      pop\n      jump\t// out\n        /* \"#utility.yul\":1387:1526   */\n    tag_44:\n        /* \"#utility.yul\":1433:1438   */\n      0x00\n        /* \"#utility.yul\":1471:1477   */\n      dup2\n        /* \"#utility.yul\":1458:1478   */\n      calldataload\n        /* \"#utility.yul\":1449:1478   */\n      swap1\n      pop\n        /* \"#utility.yul\":1487:1520   */\n      tag_77\n        /* \"#utility.yul\":1514:1519   */\n      dup2\n        /* \"#utility.yul\":1487:1520   */\n      tag_43\n      jump\t// in\n    tag_77:\n        /* \"#utility.yul\":1387:1526   */\n      swap3\n      swap2\n      pop\n      pop\n      jump\t// out\n        /* \"#utility.yul\":1532:1861   */\n    tag_15:\n        /* \"#utility.yul\":1591:1597   */\n      0x00\n        /* \"#utility.yul\":1640:1642   */\n      0x20\n        /* \"#utility.yul\":1628:1637   */\n      dup3\n        /* \"#utility.yul\":1619:1626   */\n      dup5\n        /* \"#utility.yul\":1615:1638   */\n      sub\n        /* \"#utility.yul\":1611:1643   */\n      slt\n        /* \"#utility.yul\":1608:1727   */\n      iszero\n      tag_79\n      jumpi\n        /* \"#utility.yul\":1646:1725   */\n      tag_80\n      tag_36\n      jump\t// in\n    tag_80:\n        /* \"#utility.yul\":1608:1727   */\n    tag_79:\n        /* \"#utility.yul\":1766:1767   */\n      0x00\n        /* \"#utility.yul\":1791:1844   */\n      tag_81\n        /* \"#utility.yul\":1836:1843   */\n      dup5\n        /* \"#utility.yul\":1827:1833   */\n      dup3\n        /* \"#utility.yul\":1816:1825   */\n      dup6\n        /* \"#utility.yul\":1812:1834   */\n      add\n        /* \"#utility.yul\":1791:1844   */\n      tag_44\n      jump\t// in\n    tag_81:\n        /* \"#utility.yul\":1781:1844   */\n      swap2\n      pop\n        /* \"#utility.yul\":1737:1854   */\n      pop\n        /* \"#utility.yul\":1532:1861   */\n      swap3\n      swap2\n      pop\n      pop\n      jump\t// out\n        /* \"#utility.yul\":1867:1985   */\n    tag_45:\n        /* \"#utility.yul\":1954:1978   */\n      tag_83\n        /* \"#utility.yul\":1972:1977   */\n      dup2\n        /* \"#utility.yul\":1954:1978   */\n      tag_38\n      jump\t// in\n    tag_83:\n        /* \"#utility.yul\":1949:1952   */\n      dup3\n        /* \"#utility.yul\":1942:1979   */\n      mstore\n        /* \"#utility.yul\":1867:1985   */\n      pop\n      pop\n      jump\t// out\n        /* \"#utility.yul\":1991:2081   */\n    tag_46:\n        /* \"#utility.yul\":2025:2032   */\n      0x00\n        /* \"#utility.yul\":2068:2073   */\n      dup2\n        /* \"#utility.yul\":2061:2074   */\n      iszero\n        /* \"#utility.yul\":2054:2075   */\n      iszero\n        /* \"#utility.yul\":2043:2075   */\n      swap1\n      pop\n        /* \"#utility.yul\":1991:2081   */\n      swap2\n      swap1\n      pop\n      jump\t// out\n        /* \"#utility.yul\":2087:2196   */\n    tag_47:\n        /* \"#utility.yul\":2168:2189   */\n      tag_86\n        /* \"#utility.yul\":2183:2188   */\n      dup2\n        /* \"#utility.yul\":2168:2189   */\n      tag_46\n      jump\t// in\n    tag_86:\n        /* \"#utility.yul\":2163:2166   */\n      dup3\n        /* \"#utility.yul\":2156:2190   */\n      mstore\n        /* \"#utility.yul\":2087:2196   */\n      pop\n      pop\n      jump\t// out\n        /* \"#utility.yul\":2202:2320   */\n    tag_48:\n        /* \"#utility.yul\":2289:2313   */\n      tag_88\n        /* \"#utility.yul\":2307:2312   */\n      dup2\n        /* \"#utility.yul\":2289:2313   */\n      tag_42\n      jump\t// in\n    tag_88:\n        /* \"#utility.yul\":2284:2287   */\n      dup3\n        /* \"#utility.yul\":2277:2314   */\n      mstore\n        /* \"#utility.yul\":2202:2320   */\n      pop\n      pop\n      jump\t// out\n        /* \"#utility.yul\":2326:2867   */\n    tag_18:\n        /* \"#utility.yul\":2497:2501   */\n      0x00\n        /* \"#utility.yul\":2535:2538   */\n      0x80\n        /* \"#utility.yul\":2524:2533   */\n      dup3\n        /* \"#utility.yul\":2520:2539   */\n      add\n        /* \"#utility.yul\":2512:2539   */\n      swap1\n      pop\n        /* \"#utility.yul\":2549:2620   */\n      tag_90\n        /* \"#utility.yul\":2617:2618   */\n      0x00\n        /* \"#utility.yul\":2606:2615   */\n      dup4\n        /* \"#utility.yul\":2602:2619   */\n      add\n        /* \"#utility.yul\":2593:2599   */\n      dup8\n        /* \"#utility.yul\":2549:2620   */\n      tag_45\n      jump\t// in\n    tag_90:\n        /* \"#utility.yul\":2630:2696   */\n      tag_91\n        /* \"#utility.yul\":2692:2694   */\n      0x20\n        /* \"#utility.yul\":2681:2690   */\n      dup4\n        /* \"#utility.yul\":2677:2695   */\n      add\n        /* \"#utility.yul\":2668:2674   */\n      dup7\n        /* \"#utility.yul\":2630:2696   */\n      tag_47\n      jump\t// in\n    tag_91:\n        /* \"#utility.yul\":2706:2778   */\n      tag_92\n        /* \"#utility.yul\":2774:2776   */\n      0x40\n        /* \"#utility.yul\":2763:2772   */\n      dup4\n        /* \"#utility.yul\":2759:2777   */\n      add\n        /* \"#utility.yul\":2750:2756   */\n      dup6\n        /* \"#utility.yul\":2706:2778   */\n      tag_48\n      jump\t// in\n    tag_92:\n        /* \"#utility.yul\":2788:2860   */\n      tag_93\n        /* \"#utility.yul\":2856:2858   */\n      0x60\n        /* \"#utility.yul\":2845:2854   */\n      dup4\n        /* \"#utility.yul\":2841:2859   */\n      add\n        /* \"#utility.yul\":2832:2838   */\n      dup5\n        /* \"#utility.yul\":2788:2860   */\n      tag_45\n      jump\t// in\n    tag_93:\n        /* \"#utility.yul\":2326:2867   */\n      swap6\n      swap5\n      pop\n      pop\n      pop\n      pop\n      pop\n      jump\t// out\n        /* \"#utility.yul\":2873:3053   */\n    tag_26:\n        /* \"#utility.yul\":2921:2998   */\n      0x4e487b7100000000000000000000000000000000000000000000000000000000\n        /* \"#utility.yul\":2918:2919   */\n      0x00\n        /* \"#utility.yul\":2911:2999   */\n      mstore\n        /* \"#utility.yul\":3018:3022   */\n      0x21\n        /* \"#utility.yul\":3015:3016   */\n      0x04\n        /* \"#utility.yul\":3008:3023   */\n      mstore\n        /* \"#utility.yul\":3042:3046   */\n      0x24\n        /* \"#utility.yul\":3039:3040   */\n      0x00\n        /* \"#utility.yul\":3032:3047   */\n      revert\n        /* \"#utility.yul\":3059:3172   */\n    tag_49:\n        /* \"#utility.yul\":3140:3141   */\n      0x03\n        /* \"#utility.yul\":3133:3138   */\n      dup2\n        /* \"#utility.yul\":3130:3142   */\n      lt\n        /* \"#utility.yul\":3120:3166   */\n      tag_96\n      jumpi\n        /* \"#utility.yul\":3146:3164   */\n      tag_97\n      tag_26\n      jump\t// in\n    tag_97:\n        /* \"#utility.yul\":3120:3166   */\n    tag_96:\n        /* \"#utility.yul\":3059:3172   */\n      pop\n      jump\t// out\n        /* \"#utility.yul\":3178:3305   */\n    tag_50:\n        /* \"#utility.yul\":3223:3230   */\n      0x00\n        /* \"#utility.yul\":3252:3257   */\n      dup2\n        /* \"#utility.yul\":3241:3257   */\n      swap1\n      pop\n        /* \"#utility.yul\":3258:3299   */\n      tag_99\n        /* \"#utility.yul\":3293:3298   */\n      dup3\n        /* \"#utility.yul\":3258:3299   */\n      tag_49\n      jump\t// in\n    tag_99:\n        /* \"#utility.yul\":3178:3305   */\n      swap2\n      swap1\n      pop\n      jump\t// out\n        /* \"#utility.yul\":3311:3438   */\n    tag_51:\n        /* \"#utility.yul\":3367:3376   */\n      0x00\n        /* \"#utility.yul\":3400:3432   */\n      tag_101\n        /* \"#utility.yul\":3426:3431   */\n      dup3\n        /* \"#utility.yul\":3400:3432   */\n      tag_50\n      jump\t// in\n    tag_101:\n        /* \"#utility.yul\":3387:3432   */\n      swap1\n      pop\n        /* \"#utility.yul\":3311:3438   */\n      swap2\n      swap1\n      pop\n      jump\t// out\n        /* \"#utility.yul\":3444:3587   */\n    tag_52:\n        /* \"#utility.yul\":3537:3580   */\n      tag_103\n        /* \"#utility.yul\":3574:3579   */\n      dup2\n        /* \"#utility.yul\":3537:3580   */\n      tag_51\n      jump\t// in\n    tag_103:\n        /* \"#utility.yul\":3532:3535   */\n      dup3\n        /* \"#utility.yul\":3525:3581   */\n      mstore\n        /* \"#utility.yul\":3444:3587   */\n      pop\n      pop\n      jump\t// out\n        /* \"#utility.yul\":3593:3827   */\n    tag_22:\n        /* \"#utility.yul\":3692:3696   */\n      0x00\n        /* \"#utility.yul\":3730:3732   */\n      0x20\n        /* \"#utility.yul\":3719:3728   */\n      dup3\n        /* \"#utility.yul\":3715:3733   */\n      add\n        /* \"#utility.yul\":3707:3733   */\n      swap1\n      pop\n        /* \"#utility.yul\":3743:3820   */\n      tag_105\n        /* \"#utility.yul\":3817:3818   */\n      0x00\n        /* \"#utility.yul\":3806:3815   */\n      dup4\n        /* \"#utility.yul\":3802:3819   */\n      add\n        /* \"#utility.yul\":3793:3799   */\n      dup5\n        /* \"#utility.yul\":3743:3820   */\n      tag_52\n      jump\t// in\n    tag_105:\n        /* \"#utility.yul\":3593:3827   */\n      swap3\n      swap2\n      pop\n      pop\n      jump\t// out\n        /* \"#utility.yul\":3833:4002   */\n    tag_53:\n        /* \"#utility.yul\":3917:3928   */\n      0x00\n        /* \"#utility.yul\":3951:3957   */\n      dup3\n        /* \"#utility.yul\":3946:3949   */\n      dup3\n        /* \"#utility.yul\":3939:3958   */\n      mstore\n        /* \"#utility.yul\":3991:3995   */\n      0x20\n        /* \"#utility.yul\":3986:3989   */\n      dup3\n        /* \"#utility.yul\":3982:3996   */\n      add\n        /* \"#utility.yul\":3967:3996   */\n      swap1\n      pop\n        /* \"#utility.yul\":3833:4002   */\n      swap3\n      swap2\n      pop\n      pop\n      jump\t// out\n        /* \"#utility.yul\":4008:4178   */\n    tag_54:\n        /* \"#utility.yul\":4148:4170   */\n      0x566f74696e67206973206e6f7420616374697665000000000000000000000000\n        /* \"#utility.yul\":4144:4145   */\n      0x00\n        /* \"#utility.yul\":4136:4142   */\n      dup3\n        /* \"#utility.yul\":4132:4146   */\n      add\n        /* \"#utility.yul\":4125:4171   */\n      mstore\n        /* \"#utility.yul\":4008:4178   */\n      pop\n      jump\t// out\n        /* \"#utility.yul\":4184:4550   */\n    tag_55:\n        /* \"#utility.yul\":4326:4329   */\n      0x00\n        /* \"#utility.yul\":4347:4414   */\n      tag_109\n        /* \"#utility.yul\":4411:4413   */\n      0x14\n        /* \"#utility.yul\":4406:4409   */\n      dup4\n        /* \"#utility.yul\":4347:4414   */\n      tag_53\n      jump\t// in\n    tag_109:\n        /* \"#utility.yul\":4340:4414   */\n      swap2\n      pop\n        /* \"#utility.yul\":4423:4516   */\n      tag_110\n        /* \"#utility.yul\":4512:4515   */\n      dup3\n        /* \"#utility.yul\":4423:4516   */\n      tag_54\n      jump\t// in\n    tag_110:\n        /* \"#utility.yul\":4541:4543   */\n      0x20\n        /* \"#utility.yul\":4536:4539   */\n      dup3\n        /* \"#utility.yul\":4532:4544   */\n      add\n        /* \"#utility.yul\":4525:4544   */\n      swap1\n      pop\n        /* \"#utility.yul\":4184:4550   */\n      swap2\n      swap1\n      pop\n      jump\t// out\n        /* \"#utility.yul\":4556:4975   */\n    tag_34:\n        /* \"#utility.yul\":4722:4726   */\n      0x00\n        /* \"#utility.yul\":4760:4762   */\n      0x20\n        /* \"#utility.yul\":4749:4758   */\n      dup3\n        /* \"#utility.yul\":4745:4763   */\n      add\n        /* \"#utility.yul\":4737:4763   */\n      swap1\n      pop\n        /* \"#utility.yul\":4809:4818   */\n      dup2\n        /* \"#utility.yul\":4803:4807   */\n      dup2\n        /* \"#utility.yul\":4799:4819   */\n      sub\n        /* \"#utility.yul\":4795:4796   */\n      0x00\n        /* \"#utility.yul\":4784:4793   */\n      dup4\n        /* \"#utility.yul\":4780:4797   */\n      add\n        /* \"#utility.yul\":4773:4820   */\n      mstore\n        /* \"#utility.yul\":4837:4968   */\n      tag_112\n        /* \"#utility.yul\":4963:4967   */\n      dup2\n        /* \"#utility.yul\":4837:4968   */\n      tag_55\n      jump\t// in\n    tag_112:\n        /* \"#utility.yul\":4829:4968   */\n      swap1\n      pop\n        /* \"#utility.yul\":4556:4975   */\n      swap2\n      swap1\n      pop\n      jump\t// out\n\n    auxdata: 0xa26469706673582212200c8e852057cc63582af0dab24fc1a359fcdba82459c8ead030a5206438eacafe64736f6c634300081e0033\n}\n",
				"bytecode": {
					"linkReferences": {},
					"object": "6080604052348015600e575f5ffd5b506105078061001c5f395ff3fe608060405234801561000f575f5ffd5b506004361061004a575f3560e01c80631ec6b60a1461004e5780633eb76b9c14610058578063a3ec138d14610074578063c19d93fb146100a7575b5f5ffd5b6100566100c5565b005b610072600480360381019061006d91906102a2565b6100f0565b005b61008e60048036038101906100899190610327565b610202565b60405161009e949392919061038a565b60405180910390f35b6100af61025a565b6040516100bc9190610440565b60405180910390f35b60015f5f6101000a81548160ff021916908360028111156100e9576100e86103cd565b5b0217905550565b60016002811115610104576101036103cd565b5b5f5f9054906101000a900460ff166002811115610124576101236103cd565b5b14610164576040517f08c379a000000000000000000000000000000000000000000000000000000000815260040161015b906104b3565b60405180910390fd5b6001805f3373ffffffffffffffffffffffffffffffffffffffff1673ffffffffffffffffffffffffffffffffffffffff1681526020019081526020015f206001015f6101000a81548160ff021916908315150217905550803373ffffffffffffffffffffffffffffffffffffffff167fa36cc2bebb74db33e9f88110a07ef56e1b31b24b4c4f51b54b1664266e29f45b60405160405180910390a350565b6001602052805f5260405f205f91509050805f015490806001015f9054906101000a900460ff16908060010160019054906101000a900473ffffffffffffffffffffffffffffffffffffffff16908060020154905084565b5f5f9054906101000a900460ff1681565b5f5ffd5b5f819050919050565b6102818161026f565b811461028b575f5ffd5b50565b5f8135905061029c81610278565b92915050565b5f602082840312156102b7576102b661026b565b5b5f6102c48482850161028e565b91505092915050565b5f73ffffffffffffffffffffffffffffffffffffffff82169050919050565b5f6102f6826102cd565b9050919050565b610306816102ec565b8114610310575f5ffd5b50565b5f81359050610321816102fd565b92915050565b5f6020828403121561033c5761033b61026b565b5b5f61034984828501610313565b91505092915050565b61035b8161026f565b82525050565b5f8115159050919050565b61037581610361565b82525050565b610384816102ec565b82525050565b5f60808201905061039d5f830187610352565b6103aa602083018661036c565b6103b7604083018561037b565b6103c46060830184610352565b95945050505050565b7f4e487b71000000000000000000000000000000000000000000000000000000005f52602160045260245ffd5b6003811061040b5761040a6103cd565b5b50565b5f81905061041b826103fa565b919050565b5f61042a8261040e565b9050919050565b61043a81610420565b82525050565b5f6020820190506104535f830184610431565b92915050565b5f82825260208201905092915050565b7f566f74696e67206973206e6f74206163746976650000000000000000000000005f82015250565b5f61049d601483610459565b91506104a882610469565b602082019050919050565b5f6020820190508181035f8301526104ca81610491565b905091905056fea26469706673582212200c8e852057cc63582af0dab24fc1a359fcdba82459c8ead030a5206438eacafe64736f6c634300081e0033",
					"opcodes": "PUSH1 0x80 PUSH1 0x40 MSTORE CALLVALUE DUP1 ISZERO PUSH1 0xE JUMPI PUSH0 PUSH0 REVERT JUMPDEST POP PUSH2 0x507 DUP1 PUSH2 0x1C PUSH0 CODECOPY PUSH0 RETURN INVALID PUSH1 0x80 PUSH1 0x40 MSTORE CALLVALUE DUP1 ISZERO PUSH2 0xF JUMPI PUSH0 PUSH0 REVERT JUMPDEST POP PUSH1 0x4 CALLDATASIZE LT PUSH2 0x4A JUMPI PUSH0 CALLDATALOAD PUSH1 0xE0 SHR DUP1 PUSH4 0x1EC6B60A EQ PUSH2 0x4E JUMPI DUP1 PUSH4 0x3EB76B9C EQ PUSH2 0x58 JUMPI DUP1 PUSH4 0xA3EC138D EQ PUSH2 0x74 JUMPI DUP1 PUSH4 0xC19D93FB EQ PUSH2 0xA7 JUMPI JUMPDEST PUSH0 PUSH0 REVERT JUMPDEST PUSH2 0x56 PUSH2 0xC5 JUMP JUMPDEST STOP JUMPDEST PUSH2 0x72 PUSH1 0x4 DUP1 CALLDATASIZE SUB DUP2 ADD SWAP1 PUSH2 0x6D SWAP2 SWAP1 PUSH2 0x2A2 JUMP JUMPDEST PUSH2 0xF0 JUMP JUMPDEST STOP JUMPDEST PUSH2 0x8E PUSH1 0x4 DUP1 CALLDATASIZE SUB DUP2 ADD SWAP1 PUSH2 0x89 SWAP2 SWAP1 PUSH2 0x327 JUMP JUMPDEST PUSH2 0x202 JUMP JUMPDEST PUSH1 0x40 MLOAD PUSH2 0x9E SWAP5 SWAP4 SWAP3 SWAP2 SWAP1 PUSH2 0x38A JUMP JUMPDEST PUSH1 0x40 MLOAD DUP1 SWAP2 SUB SWAP1 RETURN JUMPDEST PUSH2 0xAF PUSH2 0x25A JUMP JUMPDEST PUSH1 0x40 MLOAD PUSH2 0xBC SWAP2 SWAP1 PUSH2 0x440 JUMP JUMPDEST PUSH1 0x40 MLOAD DUP1 SWAP2 SUB SWAP1 RETURN JUMPDEST PUSH1 0x1 PUSH0 PUSH0 PUSH2 0x100 EXP DUP2 SLOAD DUP2 PUSH1 0xFF MUL NOT AND SWAP1 DUP4 PUSH1 0x2 DUP2 GT ISZERO PUSH2 0xE9 JUMPI PUSH2 0xE8 PUSH2 0x3CD JUMP JUMPDEST JUMPDEST MUL OR SWAP1 SSTORE POP JUMP JUMPDEST PUSH1 0x1 PUSH1 0x2 DUP2 GT ISZERO PUSH2 0x104 JUMPI PUSH2 0x103 PUSH2 0x3CD JUMP JUMPDEST JUMPDEST PUSH0 PUSH0 SWAP1 SLOAD SWAP1 PUSH2 0x100 EXP SWAP1 DIV PUSH1 0xFF AND PUSH1 0x2 DUP2 GT ISZERO PUSH2 0x124 JUMPI PUSH2 0x123 PUSH2 0x3CD JUMP JUMPDEST JUMPDEST EQ PUSH2 0x164 JUMPI PUSH1 0x40 MLOAD PUSH32 0x8C379A000000000000000000000000000000000000000000000000000000000 DUP2 MSTORE PUSH1 0x4 ADD PUSH2 0x15B SWAP1 PUSH2 0x4B3 JUMP JUMPDEST PUSH1 0x40 MLOAD DUP1 SWAP2 SUB SWAP1 REVERT JUMPDEST PUSH1 0x1 DUP1 PUSH0 CALLER PUSH20 0xFFFFFFFFFFFFFFFFFFFFFFFFFFFFFFFFFFFFFFFF AND PUSH20 0xFFFFFFFFFFFFFFFFFFFFFFFFFFFFFFFFFFFFFFFF AND DUP2 MSTORE PUSH1 0x20 ADD SWAP1 DUP2 MSTORE PUSH1 0x20 ADD PUSH0 KECCAK256 PUSH1 0x1 ADD PUSH0 PUSH2 0x100 EXP DUP2 SLOAD DUP2 PUSH1 0xFF MUL NOT AND SWAP1 DUP4 ISZERO ISZERO MUL OR SWAP1 SSTORE POP DUP1 CALLER PUSH20 0xFFFFFFFFFFFFFFFFFFFFFFFFFFFFFFFFFFFFFFFF AND PUSH32 0xA36CC2BEBB74DB33E9F88110A07EF56E1B31B24B4C4F51B54B1664266E29F45B PUSH1 0x40 MLOAD PUSH1 0x40 MLOAD DUP1 SWAP2 SUB SWAP1 LOG3 POP JUMP JUMPDEST PUSH1 0x1 PUSH1 0x20 MSTORE DUP1 PUSH0 MSTORE PUSH1 0x40 PUSH0 KECCAK256 PUSH0 SWAP2 POP SWAP1 POP DUP1 PUSH0 ADD SLOAD SWAP1 DUP1 PUSH1 0x1 ADD PUSH0 SWAP1 SLOAD SWAP1 PUSH2 0x100 EXP SWAP1 DIV PUSH1 0xFF AND SWAP1 DUP1 PUSH1 0x1 ADD PUSH1 0x1 SWAP1 SLOAD SWAP1 PUSH2 0x100 EXP SWAP1 DIV PUSH20 0xFFFFFFFFFFFFFFFFFFFFFFFFFFFFFFFFFFFFFFFF AND SWAP1 DUP1 PUSH1 0x2 ADD SLOAD SWAP1 POP DUP5 JUMP JUMPDEST PUSH0 PUSH0 SWAP1 SLOAD SWAP1 PUSH2 0x100 EXP SWAP1 DIV PUSH1 0xFF AND DUP2 JUMP JUMPDEST PUSH0 PUSH0 REVERT JUMPDEST PUSH0 DUP2 SWAP1 POP SWAP2 SWAP1 POP JUMP JUMPDEST PUSH2 0x281 DUP2 PUSH2 0x26F JUMP JUMPDEST DUP2 EQ PUSH2 0x28B JUMPI PUSH0 PUSH0 REVERT JUMPDEST POP JUMP JUMPDEST PUSH0 DUP2 CALLDATALOAD SWAP1 POP PUSH2 0x29C DUP2 PUSH2 0x278 JUMP JUMPDEST SWAP3 SWAP2 POP POP JUMP JUMPDEST PUSH0 PUSH1 0x20 DUP3 DUP5 SUB SLT ISZERO PUSH2 0x2B7 JUMPI PUSH2 0x2B6 PUSH2 0x26B JUMP JUMPDEST JUMPDEST PUSH0 PUSH2 0x2C4 DUP5 DUP3 DUP6 ADD PUSH2 0x28E JUMP JUMPDEST SWAP2 POP POP SWAP3 SWAP2 POP POP JUMP JUMPDEST PUSH0 PUSH20 0xFFFFFFFFFFFFFFFFFFFFFFFFFFFFFFFFFFFFFFFF DUP3 AND SWAP1 POP SWAP2 SWAP1 POP JUMP JUMPDEST PUSH0 PUSH2 0x2F6 DUP3 PUSH2 0x2CD JUMP JUMPDEST SWAP1 POP SWAP2 SWAP1 POP JUMP JUMPDEST PUSH2 0x306 DUP2 PUSH2 0x2EC JUMP JUMPDEST DUP2 EQ PUSH2 0x310 JUMPI PUSH0 PUSH0 REVERT JUMPDEST POP JUMP JUMPDEST PUSH0 DUP2 CALLDATALOAD SWAP1 POP PUSH2 0x321 DUP2 PUSH2 0x2FD JUMP JUMPDEST SWAP3 SWAP2 POP POP JUMP JUMPDEST PUSH0 PUSH1 0x20 DUP3 DUP5 SUB SLT ISZERO PUSH2 0x33C JUMPI PUSH2 0x33B PUSH2 0x26B JUMP JUMPDEST JUMPDEST PUSH0 PUSH2 0x349 DUP5 DUP3 DUP6 ADD PUSH2 0x313 JUMP JUMPDEST SWAP2 POP POP SWAP3 SWAP2 POP POP JUMP JUMPDEST PUSH2 0x35B DUP2 PUSH2 0x26F JUMP JUMPDEST DUP3 MSTORE POP POP JUMP JUMPDEST PUSH0 DUP2 ISZERO ISZERO SWAP1 POP SWAP2 SWAP1 POP JUMP JUMPDEST PUSH2 0x375 DUP2 PUSH2 0x361 JUMP JUMPDEST DUP3 MSTORE POP POP JUMP JUMPDEST PUSH2 0x384 DUP2 PUSH2 0x2EC JUMP JUMPDEST DUP3 MSTORE POP POP JUMP JUMPDEST PUSH0 PUSH1 0x80 DUP3 ADD SWAP1 POP PUSH2 0x39D PUSH0 DUP4 ADD DUP8 PUSH2 0x352 JUMP JUMPDEST PUSH2 0x3AA PUSH1 0x20 DUP4 ADD DUP7 PUSH2 0x36C JUMP JUMPDEST PUSH2 0x3B7 PUSH1 0x40 DUP4 ADD DUP6 PUSH2 0x37B JUMP JUMPDEST PUSH2 0x3C4 PUSH1 0x60 DUP4 ADD DUP5 PUSH2 0x352 JUMP JUMPDEST SWAP6 SWAP5 POP POP POP POP POP JUMP JUMPDEST PUSH32 0x4E487B7100000000000000000000000000000000000000000000000000000000 PUSH0 MSTORE PUSH1 0x21 PUSH1 0x4 MSTORE PUSH1 0x24 PUSH0 REVERT JUMPDEST PUSH1 0x3 DUP2 LT PUSH2 0x40B JUMPI PUSH2 0x40A PUSH2 0x3CD JUMP JUMPDEST JUMPDEST POP JUMP JUMPDEST PUSH0 DUP2 SWAP1 POP PUSH2 0x41B DUP3 PUSH2 0x3FA JUMP JUMPDEST SWAP2 SWAP1 POP JUMP JUMPDEST PUSH0 PUSH2 0x42A DUP3 PUSH2 0x40E JUMP JUMPDEST SWAP1 POP SWAP2 SWAP1 POP JUMP JUMPDEST PUSH2 0x43A DUP2 PUSH2 0x420 JUMP JUMPDEST DUP3 MSTORE POP POP JUMP JUMPDEST PUSH0 PUSH1 0x20 DUP3 ADD SWAP1 POP PUSH2 0x453 PUSH0 DUP4 ADD DUP5 PUSH2 0x431 JUMP JUMPDEST SWAP3 SWAP2 POP POP JUMP JUMPDEST PUSH0 DUP3 DUP3 MSTORE PUSH1 0x20 DUP3 ADD SWAP1 POP SWAP3 SWAP2 POP POP JUMP JUMPDEST PUSH32 0x566F74696E67206973206E6F7420616374697665000000000000000000000000 PUSH0 DUP3 ADD MSTORE POP JUMP JUMPDEST PUSH0 PUSH2 0x49D PUSH1 0x14 DUP4 PUSH2 0x459 JUMP JUMPDEST SWAP2 POP PUSH2 0x4A8 DUP3 PUSH2 0x469 JUMP JUMPDEST PUSH1 0x20 DUP3 ADD SWAP1 POP SWAP2 SWAP1 POP JUMP JUMPDEST PUSH0 PUSH1 0x20 DUP3 ADD SWAP1 POP DUP2 DUP2 SUB PUSH0 DUP4 ADD MSTORE PUSH2 0x4CA DUP2 PUSH2 0x491 JUMP JUMPDEST SWAP1 POP SWAP2 SWAP1 POP JUMP INVALID LOG2 PUSH5 0x6970667358 0x22 SLT KECCAK256 0xC DUP15 DUP6 KECCAK256 JUMPI 0xCC PUSH4 0x582AF0DA 0xB2 0x4F 0xC1 LOG3 MSIZE 0xFC 0xDB 0xA8 0x24 MSIZE 0xC8 0xEA 0xD0 ADDRESS 0xA5 KECCAK256 PUSH5 0x38EACAFE64 PUSH20 0x6F6C634300081E00330000000000000000000000 "
				},
				"gasEstimates": {
					"creation": {
						"codeDepositCost": "257400",
						"executionCost": "298",
						"totalCost": "257698"
					},
					"external": {
						"castVote(uint256)": "28507",
						"startVoting()": "24406",
						"state()": "2597",
						"voters(address)": "infinite"
					}
				},
				"methodIdentifiers": {
					"castVote(uint256)": "3eb76b9c",
					"startVoting()": "1ec6b60a",
					"state()": "c19d93fb",
					"voters(address)": "a3ec138d"
				}
			},
			"storageLayout": {
				"storage": [
					{
						"astId": 17,
						"contract": "Structs_enums_events.sol:AdvancedFeatures",
						"label": "state",
						"offset": 0,
						"slot": "0",
						"type": "t_enum(State)14"
					},
					{
						"astId": 28,
						"contract": "Structs_enums_events.sol:AdvancedFeatures",
						"label": "voters",
						"offset": 0,
						"slot": "1",
						"type": "t_mapping(t_address,t_struct(Voter)10_storage)"
					}
				],
				"types": {
					"t_address": {
						"encoding": "inplace",
						"label": "address",
						"numberOfBytes": "20"
					},
					"t_bool": {
						"encoding": "inplace",
						"label": "bool",
						"numberOfBytes": "1"
					},
					"t_enum(State)14": {
						"encoding": "inplace",
						"label": "enum AdvancedFeatures.State",
						"numberOfBytes": "1"
					},
					"t_mapping(t_address,t_struct(Voter)10_storage)": {
						"encoding": "mapping",
						"key": "t_address",
						"label": "mapping(address => struct AdvancedFeatures.Voter)",
						"numberOfBytes": "32",
						"value": "t_struct(Voter)10_storage"
					},
					"t_struct(Voter)10_storage": {
						"encoding": "inplace",
						"label": "struct AdvancedFeatures.Voter",
						"members": [
							{
								"astId": 3,
								"contract": "Structs_enums_events.sol:AdvancedFeatures",
								"label": "weight",
								"offset": 0,
								"slot": "0",
								"type": "t_uint256"
							},
							{
								"astId": 5,
								"contract": "Structs_enums_events.sol:AdvancedFeatures",
								"label": "voted",
								"offset": 0,
								"slot": "1",
								"type": "t_bool"
							},
							{
								"astId": 7,
								"contract": "Structs_enums_events.sol:AdvancedFeatures",
								"label": "delegate",
								"offset": 1,
								"slot": "1",
								"type": "t_address"
							},
							{
								"astId": 9,
								"contract": "Structs_enums_events.sol:AdvancedFeatures",
								"label": "vote",
								"offset": 0,
								"slot": "2",
								"type": "t_uint256"
							}
						],
						"numberOfBytes": "96"
					},
					"t_uint256": {
						"encoding": "inplace",
						"label": "uint256",
						"numberOfBytes": "32"
					}
				}
			},
			"userdoc": {
				"kind": "user",
				"methods": {},
				"version": 1
			}
		}
	}
}